:020000040000fa
:080000000002040000000000f2
:020000040000fa
:10000800d2020000d2020000d2020000d202000098
:10001800d2020000d2020000d2020000d202000088
:10002800d2020000d2020000d2020000d202000078
:10003800d2020000d2020000d2020000d202000068
:020000040000fa
:100400008f0021000eff24000e0188000000000074
:10041000000020000000e000020032000001200087
:10042000200288000c000700603720000100200037
:100430000f000700000020000000e0000200320072
:10044000000002000000000038030200000000006d
:100450000040da000000fe00200020000000e00064
:100460000200320010002000900188000000060009
:10047000a1028800800078000000eb001a0037001d
:10048000e280400054a0b4009101ba00e280400034
:1004900054a0b4009102ba00e280400054a0b4001d
:1004a0000002eb00472bde00f507b200a601880032
:1004b000602ce10008003a000049eb000201e8006e
:1004c000020039003420ec0002f0a0008301e900b2
:1004d000f9ff3e00040037006128e100010032000e
:1004e0000082eb00040007001101ba000200e000e6
:1004f000e3ff3a000000060004d0a300e20f490029
:100500001c003900810278003549ba000201e80078
:10051000020039003420ec0002f0a0008301e90061
:100520000f0032002549ba000201e800020039003c
:100530003420ec0002f0a0008301e9000800320042
:100540000400e0000600320015c9ba000201e8000c
:10055000020039003420ec0002f0a0008301e90021
:100560008180e80054a0b4000300e000e2ff3a00fc
:10057000000006009102ba00055978008301e900e5
:10058000f7ff3200c82ade00055978008301e90030
:10059000f3ff32000400e000f1ff320011d9ba008d
:0c05a000eeff37000040da000000fe0013
:020000040000fa
:1005ac000000fa0021e3a80021a3a9002143a9001f
:1005bc00041980000480a1000490a1000419880093
:1005cc00041980000450a0000460a0000470a00076
:1005dc0004198800041980000450a1000460a100d3
:1005ec000470a100041988002063a8002043a8000f
:1005fc001419800004d0a10004e0a10004f0a100b3
:10060c00141988002343a900141980000480a10048
:10061c000490a100141988002223a8002203a90029
:10062c0025e3a80025198000f40f2e000482620037
:10063c00241988000042eb000400780024e3b70082
:10064c00941980000400a1000410a1000420a10052
:10065c00941988000002eb00040078000080fa0076
:10066c00000006000400fa00000f78001107980043
:10067c001f000700caff07000400200005f8230034
:10068c00048088001580880044062000248088009f
:10069c000e000700268080000480800015808000fa
:1006ac00060178000400be0001000700f8ff3700c7
:1006bc000600fa00008fbe00220798000002eb0033
:1006cc00040078000080fa00000006000000fa0028
:1006dc000002eb00040078000080fa000000060025
:020000040000fa
:1006ec000010000008000000800000000000000066
:020000040000fa
:0c06fc000000fa000080fa000000060078
:020000040000fa
:020000040002f8
:04afe000dfff00008f
:020000040000fa
:020000040002f8
:04afe4003fff00002b
:020000040000fa
:020000040002f8
:04afe8007fff0000e7
:020000040000fa
:020000040002f8
:04afec009fff0000c3
:020000040000fa
:020000040002f8
:04aff00078ff0000e6
:00000001FF
