:020000040000fa
:080000000002040000000000f2
:020000040000fa
:10000800c8020000c8020000c8020000c8020000c0
:10001800c8020000c8020000c8020000c8020000b0
:10002800c8020000c8020000c8020000c8020000a0
:10003800c8020000c8020000c8020000c802000090
:10004800c8020000c8020000c80200007e0e0000be
:10005800c8020000c8020000c8020000c802000070
:10006800c8020000c8020000c8020000c802000060
:10007800c8020000c8020000c8020000c802000050
:10008800c8020000c8020000c8020000c802000040
:020000040000fa
:100400000f0f21000eff24000e01880000000000e5
:100410000c00070060d42000010020000f0007003e
:10042000000020000000e000020032000000020096
:1004300000000000660e0200000000000040da002c
:100440000000fe00c02520000000e0000200320095
:10045000002020009001880000000600a102880012
:10046000800078000000eb001a003700e2804000b6
:1004700054a0b4009101ba00e280400054a0b4003e
:100480009102ba00e280400054a0b4000002eb00e8
:10049000472bde00f507b200a6018800602ce100c2
:1004a00008003a000049eb000201e80002003900b0
:1004b0003420ec0002f0a0008301e900f9ff3e00c7
:1004c000040037006128e100010032000082eb00e7
:1004d000040007001101ba000200e000e3ff3a0047
:1004e0000000060004d0a300e20f49001c00390000
:1004f000810278003549ba000201e80002003900a3
:100500003420ec0002f0a0008301e9000f0032006b
:100510002549ba000201e800020039003420ec004d
:1005200002f0a0008301e900080032000400e000ae
:100530000600320015c9ba000201e80002003900c5
:100540003420ec0002f0a0008301e9008180e80083
:1005500054a0b4000300e000e2ff3a0000000600ef
:100560009102ba00055978008301e900f7ff3200d3
:10057000c82ade00055978008301e900f3ff320044
:100580000400e000f1ff320011d9ba00eeff37009d
:100590000040da000000fe000428a90067016000a6
:1005a0004411dd0083428000f1f82f00818061005a
:1005b0008280700081428800680060004300de0095
:1005c0006100600080004000204180000010a10018
:1005d0000100700020418800000006001013880010
:1005e0002113880002138800000006000168a9009a
:1005f0000188a900670160004c11dd0023428000e2
:10060000f1ff280081806100828070002142880013
:10061000000178000207b2004411de00334280007e
:1006200081ff2f008180610082807000314288004c
:10063000680160004311de00610161004b11dd00c3
:100640000141800001b0a10082807000014188005a
:100650000008b2004700de00610060004c00dd00d1
:100660000141800001c0a10080807000014188002c
:100670000000060042118800001188001111880056
:10068000000006000000fa00610b210009000700cd
:100690000080fa00000006000000fa006801570020
:1006a000ceb89700600b2100490007000080fa00d7
:1006b000000006000000fa00889fbe0001047800d8
:1006c000b8009000628160008084eb003c00320042
:1006d000810178000320b2001801900002003a0066
:1006e000e00f510036003a000190a000310498005c
:1006f00080047800f90fb200e00f510002003a00c8
:1007000028009000000c7800ea8f540006003a00a0
:10071000010078000008b20003003a008800780069
:10072000d0002000e3ff070018009000d8009000e0
:10073000810f50000b0032000000e8001004980008
:100740001800780009487800000ce80010c0b300d9
:10075000810e210080487800ea8f540018003a008a
:100760000500370088007800094078001203070070
:100770008004780012003700380090000010b200aa
:100780000f00320018019000a8009000480090006f
:100790004b03070098009000810f500004003200c6
:1007a000380090000003b300300498008084eb0010
:1007b0000000eb001004980028009000000c780066
:1007c000090078004f04be000080fa000000060017
:1007d0003600fa00889fbe008a9fbe008c9fbe0034
:1007e0006017980001179800620f98000000eb0056
:1007f00050179800e50237008e1090008100e80045
:100800000117980052c2b300824f500006003a0010
:100810008046eb0003c3b30065415100b1c2b30091
:100820000e10900011003700ee119000330190007f
:100830000204b2000400320013017800004978007d
:100840008209e800050037000000fb00ee10900070
:1008500098ff0700e10f4000cc023200de1290004a
:100860008502e80055179800c8023700104278004a
:10087000d6c2b300864f52000b0032008002e8005f
:10088000864f520005003c00824f520009003200a2
:10089000814f52000e003a0008003700834f52008b
:1008a0000b003a00070037000d34a0000000e800fc
:1008b000eeff37000d04a000030037000d14a00068
:1008c000010037000d24a00005007800e7ff370085
:1008d0000017980062816600010032000d04a1003b
:1008e00068816600010032000d24a1000401fb00b4
:1008f0000203b100e90f51000d003e008004eb003f
:100900008e109000ea48b80009fd2f008084440052
:100910001100fb00808444005100fb000003b10083
:10092000e90f5000f7ff3600011798000a00370062
:100930008004eb00a2c2b300824f520006003a00ce
:100940006e0c9000c8047800680f98000e15900097
:100950000a05e8000a1798008005eb007b0f980055
:10096000e2c2b3000e1690009c4f11001c003a002a
:10097000644151000c06e8000c1798001c407800f8
:10098000824f50000d003a00ee08900041017800bf
:10099000610f9800720f98008c0178008301e800c5
:1009a000031798000e003700ea18b8000003b100e2
:1009b000810140000201e80002003700fe099000ba
:1009c0000e1190009200fb0000fd2f00010040007e
:1009d000e90f5000f4ff3600730f980002179800db
:1009e00035c6b300c1c6b3008e1190003342780003
:1009f000044f780036c7b300864f52001a00320009
:100a000008003c00854f520092003200814f520096
:100a10000c00320003179800e04f520060023200d1
:100a2000aa0037000317980052c7b300824f520044
:100a3000aa00320063414100824f5200a3003a00f5
:100a400006003700708166000040eb0001003a00ac
:100a500000c1b30080c67600e4ff37000d40780087
:100a60000074a0009f003700031798006e0c9000e0
:100a700048027800680f980014179800e00f5200a1
:100a800002003a000b0d21001b1798000006eb0036
:100a90002c179800020037008100e8002117980009
:100aa000ae1090001e119000028040008041eb00cb
:100ab00090cf1100f8ff3a00fe0a9000e08f52003c
:100ac000050032002e139000868f52000200310084
:100ad00005047800281798002e1290000006eb00fd
:100ae000848f54000100360004865400e8866600b6
:100af00031003a000c01780008c2b300ee149000f7
:100b000010003700390090000004b20004003200e9
:100b10001900780008487800800ce80005003700cc
:100b20008900780000022000e2fe0700e10f40008b
:100b3000030032005e1590000a05e8005a1798007d
:100b40000c0178000c06e900e00f5100edff3a00bf
:100b500019003700340090000004b2000900320090
:100b600094017800080178003240780080497800cc
:100b7000030ae80002047800e04f50000a003a003f
:100b800012003700080178003200fb0002047800f0
:100b900084007800241f9800c6fe07002e1a9000db
:100ba000e10f4000090032005e1090000000e800f4
:100bb00050179800050037001e149000ae149000e6
:100bc0003e159000ce1590006e129000090078003e
:100bd0008004e900e00f5000deff3a00181798008b
:100be000291798003a1798004b179800e08f560085
:100bf000e601320011003700380090000004b20016
:100c000004003200180078000d487800000ce8005d
:100c1000050037008800780000022000a5fe0700cc
:100c2000e10f400003003200de1090008100e80078
:100c30005117980009067800020037000dc2b30072
:100c40006e1490008c04e900e00f5600eaff3a00b1
:100c5000ce013700031798006e0990004202780019
:100c6000620f9800cfa2de000503780086037800ab
:100c70000400be000601be004800de00480cdd0096
:100c800000007400004f7800708466000900320094
:100c9000e04f500007003200e14f400005003200f5
:100ca00010479800244798002a0020002a1798002f
:100cb00003003700144798001b0020002b179800f2
:100cc0000e06e8001c1798007bff37001e179800df
:100cd000110020002117980077ff370000ccb300e7
:100ce00000c076000080fb00500f9800700160008b
:100cf000220798000e0032006e0e90004c05be00d8
:100d00006c0f98007a0798000b0f98000000eb001a
:100d1000100f98008000eb00210f98007e009000db
:100d20008e0890001e099000ae0990000700370061
:100d3000ee08900041027800610f980004007800ee
:100d4000010020000200200003002000101798007e
:100d5000211798003217980043179800fe0890005a
:100d6000e08f50000d003a0012002000720f980032
:100d70001e109000ae1090003e119000ce11900019
:100d8000e00f5000e08f5800e00f5900e08f59004d
:100d9000020032008000eb00710f98005e099000a5
:100da000020cb200320f980004082000840f51009a
:100db0001b003200040c2000840f510037003a0061
:100dc00010c0b300004f7800a5002100090378008f
:100dd0000f0037000400fb004300dd0000804200ec
:100de0005001be004000be001e149000ae149000e2
:100df0003e159000ce1590000040e10001c8e100d2
:100e000002d0e10003d8e10021003900044fe800de
:100e10001e427800f44f5200eeff3a001c003700eb
:100e200010c0b300004f780004012000050020002e
:100e30006033b80009017800110037001e149000db
:100e4000ae1490003e159000ce1590000440e100d5
:100e500005c8e10006d0e10007d8e1000e00390026
:100e6000490020000402d0008582d2000683d2000f
:100e70008783d2008904e900faff3a00004fe800b6
:100e80001e407800f04f5000ecff3a00020037009f
:100e90008604780001003700820478001e02fb00ff
:100ea0007e0d90008a0f520002003d000a4f78002c
:100eb00004003700fe0d9000848f550001003d00b6
:100ec000740f9800e08f5400040032005e0e900012
:100ed00063026600010032008904e9001e02fb0083
:100ee0000000eb00400f9800848f54000200340093
:100ef00004825400440f9800de089000e4816000f2
:100f000049003200e281600061826000e08f5100a0
:100f1000190032006e119000b20190000304b2007b
:100f20000900320092027800b3c2b300e00f520011
:100f30000100320083c1e800834a7800ee1190007e
:100f40008509e80008003700d0022000e00f5200b9
:100f500001003a000080e900ee109000d5fd070086
:100f6000e10f400017003200de1290008502e80019
:100f70005517980013003700e00f5200110032009f
:100f80006e139000b60190000304b2000500320019
:100f90009601780000c2b30080497800030be80096
:100fa00005003700ee10900000022000c1fd070090
:100fb000e10f4000030032005e1490000804e800d6
:100fc00058179800ce0c9000e08f5400ca003200f1
:100fd00008c3b30009067800de169000ee149000f6
:100fe000390090000004b2000400320019007800bb
:100ff00008487800800ce800050037008900780078
:1010000000032000abfd0700e10f400001003200ab
:101010008d06e8000c06e900f1ff3a004c0f98003d
:101020005d179800b40037004e0d9000e00f55009a
:1010300018003200de0d9000e881650015003a00ce
:1010400008c2b3000a067800de169000ee14900085
:10105000390090000004b20004003200190078004a
:1010600008487800800ce800050037008900780007
:10107000000220008ffd0700e10f40000100320058
:101080008d06e8000c06e900f1ff3a004c0f9800cd
:101090005d1798005e0e9000e20166006102660036
:1010a000e08f5100190032006e109000b0019000e6
:1010b0000304b2000900320090027800b3c2b3000a
:1010c000e00f52000100320083c1e800834a78003b
:1010d000ee1090008508e80008003700d0022000dc
:1010e000e00f520001003a000080e900ee1090008d
:1010f00070fd0700e10f40007f0032005e1190009c
:101100000201e800521798007b003700e00f520000
:1011100079003200ee129000b50190000304b20095
:10112000050032009501780000c2b30080497800c4
:10113000830ae80005003700ee109000000220004e
:101140005cfd0700e10f40006b0032005e13900071
:101150000603e80056179800670037007e0c9000e1
:101160000804e900780f980000082000be0c9000e9
:10117000808f540033003200000c2000808f540018
:1011800040003a00080578004350dd00ae059000ad
:10119000e08f55001a0032000406be00a1002100b5
:1011a000008040003004be002005be000801be00e3
:1011b0000400be00f1000700004f78000000fb00b3
:1011c000cf80de000801be00fc00070000015600d1
:1011d00081815e0032079800430798008001eb0090
:1011e000530798008002eb00650798003e029000cc
:1011f000ce0290005e039000ee0390000e003700d8
:10120000a80021000000440010017800811f780030
:10121000110009000282d800cf007800a20020004f
:10122000811f7800110009000280d80001007800b9
:10123000cf007800004f780009c3b3001ecf4400f0
:10124000100037007e0d90004250dd000605be0004
:101250000404be00000678000c06e9000500330017
:101260008b05d1000a85d3008984d3000884d3007c
:10127000f9ff37006f006400710d2100010040008c
:10128000104f78006e119000320090000004b20000
:1012900008003200120178001e40780000497800f2
:1012a000ee1190008209e800e04f50000e003a0075
:1012b000150037001e00fb00ee109000241f980060
:1012c00075179800061f9800171f9800f9fc070073
:1012d0002e1a9000fe1290000e1b90009e1b900094
:1012e000e10f4000080032005e1490000804e8009e
:1012f00058179800040037001e129000ae1290009c
:101300003e139000ce139000fe0c9000e08f54002e
:1013100092ff3a0014179800251798003617980086
:1013200047179800de0890006880600017003200c0
:101330004e099000e00f51001400340008c2b300c1
:1013400002067800de169000ee149000390090003e
:101350000004b20004003200190078000848780048
:10136000800ce800050037008900780000022000aa
:10137000d0fc0700e10f4000010032008d06e800bc
:101380000c06e900f1ff3a005d1798008e119000fd
:1013900013407800004f7800e04f500016fd3a00ef
:1013a0005e1090004f06be004f05be004f04be0009
:1013b0000080fa00000006000200fa00889fbe00cc
:1013c000004f780001047800380090008000780019
:1013d0000104b20032003a00e200600005003a0069
:1013e0000003b30030049800110498000080eb0063
:1013f0002c003700d8049000e08f540006003a001b
:10140000120020008e007800480090002c00070099
:101410001904980022003700a8009000e08f5000c7
:1014200008003a00b10e210021049800010c780058
:101430002100200051049800110498000030a00001
:101440003004980018019000a80090004800900017
:101450001b000700280090008080eb00110498001a
:101460001e487800000ce800a0c0b3009e4f10009a
:101470000b003a00380090000010b2000800320063
:1014800018019000a8009000480090000c00070090
:101490000000eb001004980028009000000c780079
:1014a0001e00fb004f04be000080fa000000060092
:1014b0000000fa0000c0da000080fa000000060018
:1014c0000a00fa00e20f500021003e007087800001
:1014d000e10f500006003200852320004423200045
:1014e0002323200000232000e08f520004003a0054
:1014f00085222000442220002322200000222000f8
:10150000060028009003630002003a00870a780072
:1015100010087300004020001300600001003a0032
:1015200013a0a000020078000600370093027800a4
:101530000510b200fdff3200b102fb00050a780081
:101540000000e900e00f5000f8ff3a000800370003
:1015500033002000030f780010079800210798003f
:10156000320798000e007800d1ff07003e0190007e
:10157000020078000080fa00000006006022b80037
:10158000060220000000d0008180d2000482d20038
:101590008582d2000000a0000202520083825a001d
:1015a000030031000202420083824a000000a100d1
:1015b0000603e900f3ff3a0000000600020ab90042
:1015c000001bb9000200b800810042008100430006
:0415d0000000060011
:020000040000fa
:1015d40080000000900000009f000000af000000a9
:1015e400bd000000cb000000d7000000e2000000b6
:1015f400ec000000f3000000f9000000fd00000012
:10160400ff000000ff000000fd000000f9000000e2
:10161400f3000000ec000000e2000000d70000002e
:10162400cb000000bd000000af0000009f000000e0
:1016340090000000800000006f00000060000000c7
:1016440050000000420000003400000028000000a8
:101654001d000000130000000c0000000600000044
:101664000200000000000000000000000200000072
:10167400060000000c000000130000001d00000024
:101684002800000034000000420000005000000068
:10169400600000006f000000800000009000000067
:1016a4009f000000af000000bd000000cb00000060
:1016b400d7000000e2000000ec000000f30000008e
:1016c400f9000000fd000000ff000000ff00000022
:1016d400fd000000f9000000f3000000ec00000031
:1016e400e2000000d7000000cb000000bd000000b5
:1016f400af0000009f000000900000008000000088
:101704006f00000060000000500000004200000074
:1017140034000000280000001d0000001300000039
:101724000c000000060000000200000000000000a1
:101734000000000002000000060000000c00000091
:10174400130000001d000000280000003400000009
:101754004200000050000000600000006f00000024
:101764000000000000000000000000000000000075
:101774000000000000000000000000000000000065
:101784000000000000000000000000000000000055
:101794000000000000000000000000000000000045
:1017a4000000000000000000000000000000000035
:1017b4000000000000000000000000000000000025
:1017c4000000000000000000000000000000000015
:1017d4000000000000000000000000000000000005
:1017e40000000000000000000000000000000000f5
:1017f40000000000000000000000000000000000e5
:1018040000000000000000000000000000000000d4
:1018140000000000000000000000000000000000c4
:101824000000000000000000ff000000ff000000b6
:10183400ff000000ff000000ff000000ff000000a8
:10184400ff000000ff000000ff000000ff00000098
:10185400ff000000ff000000ff000000ff00000088
:10186400ff000000ff000000ff000000ff00000078
:10187400ff000000ff000000ff000000ff00000068
:10188400ff000000ff000000ff000000ff00000058
:10189400ff000000ff000000ff000000ff00000048
:1018a400ff000000ff000000ff000000ff00000038
:1018b400ff000000ff000000ff000000ff00000028
:1018c400ff000000ff000000ff000000ff00000018
:1018d400ff000000ff000000ff000000ff00000008
:1018e400ff000000ff000000ff000000ff000000f8
:1018f40000000000050000000a0000000f000000c6
:10190400140000001a0000001f0000002400000062
:10191400290000002e000000330000003800000001
:101924003d00000042000000470000004d000000a0
:1019340052000000570000005c000000610000003d
:10194400660000006b0000007000000075000000dd
:101954007a0000007f00000084000000890000007d
:101964008e00000093000000990000009e0000001b
:10197400a3000000a8000000ad000000b2000000b9
:10198400b7000000bc000000c1000000c600000059
:10199400cc000000d1000000d6000000db000000f5
:1019a400e0000000e5000000ea000000ef00000095
:1019b400f4000000fa000000fa000000f400000047
:1019c400ef000000ea000000e5000000e000000075
:1019d400db000000d6000000d1000000cc000000b5
:1019e400c6000000c1000000bc000000b7000000f9
:1019f400b2000000ad000000a8000000a300000039
:101a04009e00000099000000930000008e0000007a
:101a140089000000840000007f0000007a000000bc
:101a240075000000700000006b00000066000000fc
:101a3400610000005c00000057000000520000003c
:101a44004d00000047000000420000003d0000007f
:101a540038000000330000002e00000029000000c0
:101a6400240000001f0000001a0000001400000001
:101a74000f0000000a000000050000000000000044
:081a8400474f000021000000a3
:020000040000fa
:101a8c0000100000080000008200000000000000b0
:101a9c00000000000100000008100000020000001f
:101aac0080000000e810000006000000800000002c
:101abc00aa1000002600000082000000e9100000bf
:101acc0000e910000900000000020000eb1000000b
:101adc0000eb10000e0201000000000000000000ee
:101aec00000000000602020000000000aa10000026
:101afc00d01000001800000082000000286e750055
:101b0c006c6c29000030310032333400353637002c
:101b1c003839610062636400656600000a100000d9
:101b2c00a000000082000000010000000000000086
:101b3c0000000a000000000000000000006400002b
:101b4c000000000000000000e8030000000000009e
:101b5c0000001000270000000000000000a086001c
:101b6c00010000000000000040420f0000000000d7
:101b7c000000800096980000000000000000e100ca
:101b8c00f50500000000000000ca9a003b000000b0
:101b9c0000000000e40b5400020000000000e8000c
:101bac0076481700000000000010a500d4e80000e3
:101bbc0000000000a0724e00180900000000400058
:101bcc007a10f3005a0000000080c600a47e8d003d
:101bdc000300000000c16f00f2862300000000002b
:101bec008a5d78004563010000006400a7b3b6006d
:101bfc00e00d000000e889000423c7008a00000003
:101c0c00ee10000002000000820000000100000045
:041c1c0000000000c4
:020000040000fa
:101c20000000fa0021e3a80021a3a9002143a90094
:101c300001198000f0cf2f0000806000001988009b
:101c400001198000000e200000807000001988003b
:101c500001198000f0f12f00008060000019880059
:101c60002063a8002043a80011198000f0ff210084
:101c700000806000101988002343a900111980001a
:101c8000f0cf2f0000806000101988002223a800e8
:101c90002203a90025e3a80021198000f00f2e00df
:101ca00000806000201988000040eb0024e3b700aa
:101cb0009119800080ff2f0000806000901988003b
:101cc0000000eb000080fa00000006000400fa00ab
:101cd000000f78001107980040000700600007001f
:101ce0001300070028000700cdff0700520007007f
:101cf0001002200063fa0700ffff3700801f780002
:101d00003200f80000202000900188000000000050
:101d10000000fa00a0052000201188000168a90039
:101d20000080fa003200f9004f0078000040060001
:101d30000000fa0011348000f00f2c008080600059
:101d400000102000008070001034880021368000d0
:101d500000f82f00008060004001b30020368800aa
:101d600072012000f1752d0000c82c0041fa070017
:101d700023c2a900c0f72f001cfa07000000eb00e7
:101d80000080fa00000006000000fa0041348000e4
:101d900000fc2f00008060009000b30040348800f9
:101da00041348000f00f2c00808060000080200013
:101db0000080700040348800f2ff2d00c1432700ee
:101dc000f0ff2e0005fa070030ff2f00f2f90700a0
:101dd0000000eb000080fa00000006000000fa009e
:101de0000000eb00007088000000eb0080708800ad
:101df0000080eb00707088000080eb00f0708800bd
:101e0000008ea8000000eb000080fa000000060031
:101e10000000fa000000200001f823000080880084
:101e20001180880040062000208088000000eb0020
:101e30000080fa00000006000000fa0020d428000c
:101e4000801f780014fa07008f87e900ffff370032
:101e50000000fa000000eb000080fa00000006001d
:0c1e60000000fa000080fa0000000600fc
:020000040000fa
:020000040002f8
:04afe000dfff00008f
:020000040000fa
:020000040002f8
:04afe4003fff00002b
:020000040000fa
:020000040002f8
:04afe8007fff0000e7
:020000040000fa
:020000040002f8
:04afec009fff0000c3
:020000040000fa
:020000040002f8
:04aff00078ff0000e6
:00000001FF
