:020000040000fa
:080000000002040000000000f2
:020000040000fa
:10000800d2020000d2020000d2020000d202000098
:10001800d2020000d2020000d2020000d202000088
:10002800d2020000d2020000d2020000d202000078
:10003800d2020000d2020000d2020000d202000068
:020000040000fa
:10040000af0021000eff24000e0188000000000054
:10041000000020000000e000020032000001200087
:10042000200288000c000700e0612000010020008d
:100430000f000700000020000000e0000200320072
:1004400000000200000000000e0602000000000094
:100450000040da000000fe00802520000000e000df
:1004600002003200002020009001880000000600f9
:10047000a1028800800078000000eb001a0037001d
:10048000e280400054a0b4009101ba00e280400034
:1004900054a0b4009102ba00e280400054a0b4001d
:1004a0000002eb00472bde00f507b200a601880032
:1004b000602ce10008003a000049eb000201e8006e
:1004c000020039003420ec0002f0a0008301e900b2
:1004d000f9ff3e00040037006128e100010032000e
:1004e0000082eb00040007001101ba000200e000e6
:1004f000e3ff3a000000060004d0a300e20f490029
:100500001c003900810278003549ba000201e80078
:10051000020039003420ec0002f0a0008301e90061
:100520000f0032002549ba000201e800020039003c
:100530003420ec0002f0a0008301e9000800320042
:100540000400e0000600320015c9ba000201e8000c
:10055000020039003420ec0002f0a0008301e90021
:100560008180e80054a0b4000300e000e2ff3a00fc
:10057000000006009102ba00055978008301e900e5
:10058000f7ff3200c82ade00055978008301e90030
:10059000f3ff32000400e000f1ff320011d9ba008d
:1005a000eeff37000040da000000fe000000fa0015
:1005b0000148a900e7026000c82add00f48f2f007f
:1005c0002642800006026200050272002442880072
:1005d000680060004300de00610060004a00dd004a
:1005e000f4bf2f0005418000050262000002720086
:1005f000044188000080fa00000006000000fa00b4
:100600001012880021128800021288000080fa006f
:10061000000006000000fa00421188000011880066
:0c062000111188000080fa0000000600a4
:020000040000fa
:10062c0080000000900000009f000000af00000060
:10063c00bd000000cb000000d7000000e20000006d
:10064c00ec000000f3000000f9000000fd000000c9
:10065c00ff000000ff000000fd000000f90000009a
:10066c00f3000000ec000000e2000000d7000000e6
:10067c00cb000000bd000000af0000009f00000098
:10068c0090000000800000006f000000600000007f
:10069c005000000042000000340000002800000060
:1006ac001d000000130000000c00000006000000fc
:1006bc00020000000000000000000000020000002a
:1006cc00060000000c000000130000001d000000dc
:1006dc002800000034000000420000005000000020
:1006ec00600000006f00000080000000900000001f
:1006fc009f000000af000000bd000000cb00000018
:10070c00d7000000e2000000ec000000f300000045
:10071c00f9000000fd000000ff000000ff000000d9
:10072c00fd000000f9000000f3000000ec000000e8
:10073c00e2000000d7000000cb000000bd0000006c
:10074c00af0000009f00000090000000800000003f
:10075c006f0000006000000050000000420000002c
:10076c0034000000280000001d00000013000000f1
:10077c000c00000006000000020000000000000059
:10078c000000000002000000060000000c00000049
:10079c00130000001d0000002800000034000000c1
:1007ac004200000050000000600000006f000000dc
:1007bc00000000000000000000000000000000002d
:1007cc00000000000000000000000000000000001d
:1007dc00000000000000000000000000000000000d
:1007ec0000000000000000000000000000000000fd
:1007fc0000000000000000000000000000000000ed
:10080c0000000000000000000000000000000000dc
:10081c0000000000000000000000000000000000cc
:10082c0000000000000000000000000000000000bc
:10083c0000000000000000000000000000000000ac
:10084c00000000000000000000000000000000009c
:10085c00000000000000000000000000000000008c
:10086c00000000000000000000000000000000007c
:10087c000000000000000000ff000000ff0000006e
:10088c00ff000000ff000000ff000000ff00000060
:10089c00ff000000ff000000ff000000ff00000050
:1008ac00ff000000ff000000ff000000ff00000040
:1008bc00ff000000ff000000ff000000ff00000030
:1008cc00ff000000ff000000ff000000ff00000020
:1008dc00ff000000ff000000ff000000ff00000010
:1008ec00ff000000ff000000ff000000ff00000000
:1008fc00ff000000ff000000ff000000ff000000f0
:10090c00ff000000ff000000ff000000ff000000df
:10091c00ff000000ff000000ff000000ff000000cf
:10092c00ff000000ff000000ff000000ff000000bf
:10093c00ff000000ff000000ff000000ff000000af
:10094c0000000000050000000a0000000f0000007d
:10095c00140000001a0000001f000000240000001a
:10096c00290000002e0000003300000038000000b9
:10097c003d00000042000000470000004d00000058
:10098c0052000000570000005c00000061000000f5
:10099c00660000006b000000700000007500000095
:1009ac007a0000007f000000840000008900000035
:1009bc008e00000093000000990000009e000000d3
:1009cc00a3000000a8000000ad000000b200000071
:1009dc00b7000000bc000000c1000000c600000011
:1009ec00cc000000d1000000d6000000db000000ad
:1009fc00e0000000e5000000ea000000ef0000004d
:100a0c00f4000000fa000000fa000000f4000000fe
:100a1c00ef000000ea000000e5000000e00000002c
:100a2c00db000000d6000000d1000000cc0000006c
:100a3c00c6000000c1000000bc000000b7000000b0
:100a4c00b2000000ad000000a8000000a3000000f0
:100a5c009e00000099000000930000008e00000032
:100a6c0089000000840000007f0000007a00000074
:100a7c0075000000700000006b00000066000000b4
:100a8c00610000005c0000005700000052000000f4
:100a9c004d00000047000000420000003d00000037
:100aac0038000000330000002e0000002900000078
:100abc00240000001f0000001a00000014000000b9
:100acc000f0000000a0000000500000000000000fc
:020000040000fa
:100adc000000fa0021e3a80021a3a9002143a900ea
:100aec00041980000480a1000490a100041988005e
:100afc00041980000450a0000460a0000470a00041
:100b0c0004198800041980000450a1000460a1009d
:100b1c000470a100041988002063a8002043a800d9
:100b2c001419800004d0a10004e0a10004f0a1007d
:100b3c00141988002343a900141980000480a10013
:100b4c000490a100141988002223a8002203a900f4
:100b5c0025e3a80025198000f40f2e000482620002
:100b6c00241988000042eb000400780024e3b7004d
:100b7c00941980000400a1000410a1000420a1001d
:100b8c00941988000002eb00040078000080fa0041
:100b9c00000006000000fa000400200005f8230005
:100bac00048088001580880044062000248088007a
:100bbc000002eb00040078000080fa000000060040
:100bcc000000fa00f2ff2d00c1432700f0ff2e00b9
:100bdc0087fe070070ff2f0071fe07000002eb007c
:100bec00040078000080fa00000006000000fa0003
:100bfc0072012000f17d2d0000c92c0082fe07003f
:100c0c000002eb00040078000080fa0000000600ef
:100c1c000400fa00000f780011079800110007007b
:100c2c00abff0700dbff070009000700fdff3700e3
:020000040000fa
:100c3c0000100000080000008000000008100000f8
:100c4c000200000082000000010000000000000013
:020000040000fa
:100c5c000000fa000002eb00040078000080fa00ab
:100c6c00000006000000fa000080fa0000000600f8
:020000040000fa
:020000040002f8
:04afe000dfff00008f
:020000040000fa
:020000040002f8
:04afe4003fff00002b
:020000040000fa
:020000040002f8
:04afe8007fff0000e7
:020000040000fa
:020000040002f8
:04afec009fff0000c3
:020000040000fa
:020000040002f8
:04aff00078ff0000e6
:00000001FF
