:020000040000fa
:080000000002040000000000f2
:020000040000fa
:10000800d2020000d2020000d2020000d202000098
:10001800d2020000d2020000d2020000d202000088
:10002800d2020000d2020000d2020000d202000078
:10003800d2020000d2020000d2020000d202000068
:10004800d2020000d2020000d2020000c615000051
:10005800d2020000d2020000d2020000d202000048
:10006800d2020000d2020000d2020000d202000038
:10007800d2020000d2020000d2020000d202000028
:10008800d2020000d2020000d2020000d202000018
:020000040000fa
:100400002fed21000eff24000e01880000000000e7
:10041000000020000000e000020032000001200087
:10042000200288000c00070080f12000010020005d
:100430000f000700000020000000e0000200320072
:100440000000020000000000d213020000000000c3
:100450000040da000000fe00e02320000000e00081
:1004600002003200002020009001880000000600f9
:10047000a1028800800078000000eb001a0037001d
:10048000e280400054a0b4009101ba00e280400034
:1004900054a0b4009102ba00e280400054a0b4001d
:1004a0000002eb00472bde00f507b200a601880032
:1004b000602ce10008003a000049eb000201e8006e
:1004c000020039003420ec0002f0a0008301e900b2
:1004d000f9ff3e00040037006128e100010032000e
:1004e0000082eb00040007001101ba000200e000e6
:1004f000e3ff3a000000060004d0a300e20f490029
:100500001c003900810278003549ba000201e80078
:10051000020039003420ec0002f0a0008301e90061
:100520000f0032002549ba000201e800020039003c
:100530003420ec0002f0a0008301e9000800320042
:100540000400e0000600320015c9ba000201e8000c
:10055000020039003420ec0002f0a0008301e90021
:100560008180e80054a0b4000300e000e2ff3a00fc
:10057000000006009102ba00055978008301e900e5
:10058000f7ff3200c82ade00055978008301e90030
:10059000f3ff32000400e000f1ff320011d9ba008d
:1005a000eeff37000040da000000fe000a00fa000b
:1005b000e20f500022003e0084f68000e10f52005e
:1005c0000600320087232000462320002423200039
:1005d00005232000e08f530004003a00872220000a
:1005e00046222000242220000522200000002800ae
:1005f0001500600003003a00800b78000700280017
:10060000958a7300054020009482620001003a0040
:1006100014a0a0008202780006003700940378003e
:100620000710b200fdff3200b103fb00070b78009a
:100630008502e900e08f5200f8ff3a000800370019
:10064000340020001007980032079800040f78004b
:10065000210798000e007800bc0407003e019000be
:10066000020078000080fa00000006000000fa0096
:100670000168a9000188a900e7026000cc2add001a
:10068000f4ff280026428000060262000502720084
:1006900024428800800278000507b200c42ade00e8
:1006a00084ff2f00364280000602620005027200bd
:1006b00034428800e8026000c32ade00e182620062
:1006c000cb2add00f47f2f00064180000602620085
:1006d00005027200044188000008b2004700de00f5
:1006e000610060004c00dd00f4ff2e000541800039
:1006f0000502620000027200044188000080fa00d6
:10070000000006000000fa00421188000011880075
:10071000111188000080fa0000000600889fbe00ca
:100720008a9fbe008c1f780099000700a00033004c
:1007300003866c006450e1002e0032006420e1006a
:10074000330032006150e1002f0032006120e100ef
:100750003100320085855500eb07b000090020000c
:1007600008042000050037000804440089844c0078
:100770000a0031000603430087834b000001530049
:1007800081815b00f8ff33000203be000800a00077
:100790000804440089844c00f6ff3900c639dd00a6
:1007a0008301730001003200130020008904d1008e
:1007b0000884d3000998a300050032000800a700b0
:1007c0000300a0008904d1000884d3008b05e80051
:1007d0008904d1000884d3000001eb000281d2001b
:1007e0003000070001f0a1000cf0a70001f0a0000c
:1007f000780037006420e1007a0032000801be0072
:100800000200be00f7ff37006120e10075003200f2
:100810006000b800f3ff37000000200001f8270057
:10082000f0ff37000001be00440007000470a7007d
:1008300003f0a10003f8a30013003a006509b1001a
:1008400010003200090035006928e100020035007f
:1008500001002800000005000000400081804800e1
:100860008502e900fcff3a0000000600f88f420014
:10087000050035008100d1000080d3008502e8002a
:10088000fcff3a00000006008000eb0000000500bd
:100890004f89de0082017800890037006011b800be
:1008a0009700370081002000618055000b003d005b
:1008b0000b00200061fe2f000100e1001d0034004c
:1008c00082817100610164008904d1000884d30031
:1008d0000000e800faff3a007100200061006400a7
:1008e000030070000200600009003200610444004f
:1008f000e0844c000988a500050032008b05e80063
:100900006808e10002003a008904d1000884d3009d
:10091000f20f20000258e10005003d00c75ddd0038
:10092000f907b20089807500080078000000060011
:100930000bf827008b00780000000500c70ade00d6
:10094000f107b200f50fb20008003200e1cf42001b
:10095000020032000170a00024000500810f700029
:10096000010032000408050044000500810f7000fa
:1009700002003a00140005008502e9000000400072
:1009800081c04800fcff3b000170a000240005006e
:100990000004be00e9ff07000003be000405be001e
:1009a0000200be00e5ff0700844f7500000006004e
:1009b0000200be006450e100050036006420e10042
:1009c000020036000968a30001003a000800be00da
:1009d0000160a0004f0678004f05be004f04be0026
:1009e00000000600f0ff2f00f1ff2700f9ff37009d
:1009f000889fbe008a9fbe008c1f7800e4ff07001e
:100a0000ebff330003866c006450e10024003200e9
:100a10006420e100270032006150e1002200320032
:100a20006120e100210032008b854200eb07b1001c
:100a30000134b800003ab8000804420089844a0032
:100a4000013ab8000030b8008880400009014a002f
:100a5000040033000000400081804800020149008a
:100a60008b05e900c909dd00830170000100320037
:100a700013002000c814de004814dd004709de0022
:100a80001200b200c808de000884700085ff07006d
:100a900001f0a1000cf0a70001f0a000cdff37008d
:100aa0006120e100cfff32000801be000200be005d
:100ab000f7ff37006150e100fcff3a00c9ff370043
:100ac000881f7800030478000300e00007003d0061
:100ad00060001000e080180060011900e08119003a
:100ae00002003b0001f02d00030037000400070066
:100af00008f0a70001f0a0004f04780000000600f5
:100b0000889fbe008a9fbe000082700004027100b0
:100b100004827100260032000004be000200be0004
:100b20006011b8006b092000950220000182cf00ff
:100b30000a0039000541b1000082cf0007003900ea
:100b40000541b1000982cf00040039000541b10020
:100b50000882cf00010039000541b1000542520072
:100b6000120032000a003b008281710061016400c2
:100b70008100d1000080d3008984d3000884d30091
:100b80008b05e8000442e800f7ff3a000700370051
:100b90000804440089844c0000004800818048001b
:100ba0008b05e9000442e900f9ff3a003dff070028
:100bb0004f05be004f04be00000006000000fa0012
:100bc000889fbe000004be00050037000000fb0047
:100bd000890078001c000700e10f4000040032008b
:100be00038407800e04f5000f8ff3a000000eb007a
:100bf0004f04be000080fa000000060001eb210057
:100c00000000fa00881f7800ecff070001eb2100cc
:100c100000047800a00020000b0007000800780006
:100c20004f0478000080fa000000060000eb21006d
:100c30000000fa0068015700ceb89700480007008e
:100c40000080fa00000006000000fa00889fbe0045
:100c5000010478008084eb0038029000e202620018
:100c60003b00320004037800980290000620b20096
:100c700002003a00e08f520035003a000490a000d4
:100c80008004780034049800f90fb200e08f52001d
:100c900002003a00a8029000050c7800ea8f540088
:100ca00005003a000408b20003003a00880078000a
:100cb000d0002000e4ff070018029000d802900046
:100cc000850f52000b0032000402e80015c0b3008b
:100cd0001404980018027800094a7800040ce8000f
:100ce000a4ec2100054a7800ea8f540018003a006d
:100cf000050037000940780088007800d30207001b
:100d00008004780012003700380290000410b2000e
:100d10000f00320018019000a800900048009000d9
:100d200022fe070018029000840f500004003200d9
:100d3000380290000403b300340498008084eb0070
:100d40000002eb001404980028029000040c7800c4
:100d5000090078004f04be000080fa000000060081
:100d60003c00fa00889fbe00710f98008a9fbe0069
:100d7000121798008c9fbe00000678008006eb00da
:100d8000a7023700fe08900054c2b3008100e800bb
:100d9000710f9800844f500006003a0081027800dd
:100da0000043eb0002c3b30001c2b300b0c2b30002
:100db0000e0037003c0290000404b2000400320030
:100dc0001c027800004a7800040ee8000500370095
:100dd0000000fb008c0078009bff0700e10f400043
:100de0008f0232008d06e8008d02370085037800ff
:100df000d3c2b30035427800834f5200090032005d
:100e000005003c00814f520008003200804f520024
:100e10000c003a0007003700824f520009003a00e8
:100e2000060037000634a000f0ff37000604a000db
:100e3000eeff37000614a000ecff37000624a000e8
:100e4000eaff3700e2026300010032000604a1005d
:100e5000e8026300010032000624a1008402fb00c6
:100e60000503b100e98f52000c003e000702780034
:100e70008002eb00ea28b900b402fb000503b100d0
:100e800084037800808242001400fb000003b1005c
:100e9000e90f5000f7ff3600080037008002eb0032
:100ea000a0c2b300804f520004003a001e1290000e
:100eb0008703e800c4027800141798000002eb00d2
:100ec000e0c2b300974f100009003a0064405000a0
:100ed000d74f1000020032000700780009003700e9
:100ee0001e1490008703e800480278001817980045
:100ef00032c6b300c1c6b30008003700ea22b90009
:100f00000482400080037800b000fb000103b100c0
:100f1000e98f5000f9ff3600f5ff370087017800b0
:100f200039c7b3003340780083037800894f5000fd
:100f30001a00320008003c00824f50008800320046
:100f4000814f50000c003200730f9800e04f5000aa
:100f500038023200a5003700730f980057c7b3005e
:100f6000874f5000a6003200e3c34300874f500074
:100f70009e003a0006003700f001630000c1b30094
:100f8000010032000040eb0000437300e3ff370034
:100f9000004f78000674a0009c0037009e1590005a
:100fa000730f98003ac7b3000a4f7800cb0378005c
:100fb0001b17980067179800e08f530002003a0053
:100fc000c1de2100611798006e1090008003eb00d5
:100fd000010037008703e800870040000041eb0074
:100fe000914f1100fbff3a0077179800e00f520075
:100ff00004003200fe119000830f52000100310006
:10100000741798007e1290000004eb00848f520049
:101010000100360004845200e80463000ac2b300f1
:101020000f0032002b0037003c0290000404b20095
:10103000040032001c0278000a4a7800040ee8001e
:10104000050037008c00780000022000fefe07003b
:10105000e10f4000010032008d06e8000804e900bd
:10106000e00f5400f0ff3a000084eb001900370055
:101070003c0390000604b200090032000803780027
:101080001c007800b6437800074878000604780012
:10109000000ee800e0cf53000c003a0012003700c9
:1010a000080378008c0078003600fb00541f98007d
:1010b000451f980006047800e3fe07005e1a9000c2
:1010c000ce1a9000e10f4000070032008d06e800c4
:1010d000050037000802be006e149000fe14900058
:1010e0000e1d90009e1d9000090378008604e90003
:1010f000e00f5300deff3a00681798007917980058
:101100000a1f98001b1f98000404be00e08f5400c3
:10111000c301320009c2b3000e0037003c02900048
:101120000404b200040032001c027800094a78006e
:10113000040ee800050037008c0078000002200053
:10114000c1fe0700e10f4000010032008d06e800fb
:101150000804e900e00f5400f0ff3a00b001370046
:101160009e109000730f9800c10378000704780068
:10117000cfc4de00090578008a05780011179800b1
:1011800028179800391798004a1798005b1798009d
:101190004844de004848dd00080470007000630029
:1011a000084f78000a003200e04f54000800320077
:1011b000e14f440006003200ce6090002200200083
:1011c00018479800214798007217980004003700cc
:1011d0001700200077179800ce6190001347980001
:1011e0000e04e8006817980080ff37001a002000fe
:1011f000004f78006e1798007a1798007bff370031
:10120000004f780007ccb300074373000683fb0050
:10121000f0056300261798002b0798001200320093
:101220001e1190008001eb004200be000003eb00a5
:10123000200f9800310f9800430f9800560f980028
:10124000121798002e0c9000be0c90004e0d9000ce
:10125000de0d900068179800791798000a1f980013
:101260001b1f98000b0037009e1490004903780064
:10127000060078000100200002002000030020008a
:10128000191798006017980071179800021f9800ae
:10129000131f9800e00f52000b003a0014002000ca
:1012a0006e149000fe1490000e1d90009e1d900084
:1012b000e00f5400e08f5c00e00f5d00e08f5d0008
:1012c000010032000002eb00ae149000060820007e
:1012d000090cb200690f9800868f54001400320088
:1012e000060c2000868f540029003a00c7e0210038
:1012f00016c0b3003700be003701be006e14900068
:10130000fe1490000e1d90009e1d90000040e10014
:1013100001c8e10002d0e10003d8e1001b00390060
:101320000643e800f44f5300f2ff3a00170037007d
:1013300016c0b30000012000010020006011b800b9
:101340006e149000fe1490000e1d90009e1d9000e3
:101350000040e10001c8e10002d0e10003d8e10053
:101360000a003900490020000000d0008180d2002e
:101370000281d2008381d2008904e900faff3a0099
:101380000643e800f04f5300edff3a00064f7800a7
:101390001e03fb00840f530002003d00044f780041
:1013a00003003700860f520001003d00060278005e
:1013b000e08f5200040032002e1590006303650098
:1013c000010032008502e9008005eb001e03fb00ee
:1013d0000b179800868f52000200340006835200db
:1013e000061798002e109000e40260003f003200c3
:1013f00062036000e1026000e00f53001100320060
:101400003c0390000604b200080032001c03780080
:10141000b7c2b300e08f52000100320087c3e8007a
:10142000074b7800060ee80017003700b0022000d6
:10143000e08f5200010032000080e8008c0078004c
:101440000c003700e08f520010003200bc02900008
:101450000504b200050032009c02780006c2b30009
:10146000864a7800050ee800070037008c007800f7
:1014700000022000541f9800f3fd07005e1a900040
:10148000e10f4000010032008d06e8008e10900050
:10149000e08f50005700320008c3b3008104780089
:1014a000bc0290000504b200040032009c027800e7
:1014b000884a7800050ee80007003700541f98009e
:1014c0008c00780000032000dffd07005e1a90000a
:1014d000e10f4000010032008d06e8008904e900b8
:1014e000efff3a0009179800420037000e119000f4
:1014f000e00f510017003200ae119000e882610049
:1015000014003a0008c2b30082047800bc029000c4
:101510000504b200040032009c027800884a78007a
:10152000050ee80007003700541f98008c00780073
:1015300000022000c4fd07005e1a9000e10f400089
:10154000010032008d06e8008904e900efff3a004f
:1015500009179800ae12900062836200e182620077
:10156000e00f5300110032003c0390000604b2006b
:10157000080032001c037800b7c2b300e08f5200ad
:101580000100320087c3e800074b7800060ee80030
:1015900017003700b0022000e08f52000100320037
:1015a0000080e8008c0078000c003700e08f5200cb
:1015b00010003200bc0290000504b20005003200a9
:1015c0009c02780006c2b300864a7800050ee80047
:1015d000070037008c00780000022000541f98009c
:1015e00099fd07005e1a9000e10f400001003200f3
:1015f0008d06e8008402e90047e02100422bdd006f
:1016000054079800c32add004d07980087824200e6
:1016100036079800850678006e129000fe12900042
:101620000e1b90009e1b90005e0037005e04900031
:10163000ee0c90000804e9000a0820005807980002
:101640008a8f54002b003200000c2000808f540041
:1016500036003a00ae059000e08f55001b003200c6
:101660000400be0064179800751798003d04be0082
:101670002d05be000801be00b80007000801be002d
:10168000004f78000000fb00cf80de00c3000700a1
:101690000002eb006e119000fe119000140f9800f4
:1016a000000151008181590062079800730798007a
:1016b0008001eb00030f98006e029000fe02900084
:1016c0000e0b90009e0b9000070037001d01780064
:1016d000110009000282d800a200200011000900b8
:1016e0000280d800014f780008c3b3001e4f4400a9
:1016f0000e0037000400be000601be00be049000cc
:101700003adf21008904e900050033008301d1009c
:101710000281d3008180d3000080d300f9ff37001d
:101720006f0060000a004000104f78003c009000fd
:101730000004b200070032009c0078001e407800d0
:1017400080487800010ee800e04f50000e003a009b
:1017500010003700541f9800451f9800261f98005e
:10176000371f98001e00fb008c00780036fd070034
:101770005e1a9000ce1a90002e1b9000be1b9000a7
:10178000e10f400003003200ce0590008b05e80019
:101790004b0798003e00900064005000300798000e
:1017a000e8865600de009000e08f50009fff3a0070
:1017b0006417980075179800061f9800171f980067
:1017c000ae149000ce0690006882640014003200cf
:1017d0000e159000e00f55001100340008c2b30050
:1017e0008a0478003c0290000404b2000400320035
:1017f0001c027800084a7800040ee8000500370053
:101800008c007800000220000ffd0700e10f40006f
:10181000010032008d06e8008904e900f1ff3a007a
:10182000fe0d90001b407800004f7800e04f500004
:1018300054fd3a000d0078004f06be004f05be0073
:101840004f04be000080fa00000006000200fa000b
:10185000889fbe0001047800004f78003802900095
:10186000840278000504b200020032000000fb0090
:1018700033003700e202620005003a000403b300bf
:1018800015049800340498000080eb002c00370009
:10189000d8049000e08f540006003a0012002000a7
:1018a0008e0078004800900040fb07001904980063
:1018b00022003700a8029000e08f520008003a0092
:1018c000d5ec21000430a00025049800050c780018
:1018d0003404980025002000550498001504980051
:1018e00018019000a8009000480090002ffb07000e
:1018f000280290008082eb00150498001e4a7800b0
:10190000040ce800a4c0b3009e4f12000b003a0084
:10191000380290000410b200080032001801900054
:10192000a80090004800900020fb07000002eb0098
:101930001404980028029000040c78001e00fb009c
:101940004f04be000080fa00000006000000fa000c
:1019500000c0da000080fa00000006006022b80033
:10196000060220000000d0008180d2000482d20054
:101970008582d2000000a0000202520083825a0039
:10198000030031000202420083824a000000a100ed
:101990000603e900f3ff3a0000000600020ab9005e
:1019a000001bb9000200b800810042008100430022
:0419b000000006002d
:020000040000fa
:1019b400809000009faf0000bdcb0000d7e2000084
:1019c400ecf30000f9fd0000ffff0000fdf900004a
:1019d400f3ec0000e2d70000cbbd0000af9f000095
:1019e400908000006f600000504200003428000026
:1019f4001d1300000c06000002000000000200009d
:101a0400060c0000131d00002834000042500000a2
:101a1400606f0000809000009faf0000bdcb00000d
:101a2400d7e20000ecf30000f9fd0000ffff000026
:101a3400fdf90000f3ec0000e2d70000cbbd00008c
:101a4400af9f0000908000006f60000050420000d3
:101a5400342800001d1300000c06000002000000e2
:101a640000020000060c0000131d000028340000d2
:101a740042500000606f0000000000000000000001
:101a84000000000000000000000000000000000052
:101a94000000000000000000000000000000000042
:101aa4000000000000000000000000000000000032
:101ab4000000000000000000000000000000000022
:101ac4000000000000000000000000000000000012
:101ad400000000000000000000000000ffff000004
:101ae400ffff0000ffff0000ffff0000ffff0000fa
:101af400ffff0000ffff0000ffff0000ffff0000ea
:101b0400ffff0000ffff0000ffff0000ffff0000d9
:101b1400ffff0000ffff0000ffff0000ffff0000c9
:101b2400ffff0000ffff0000ffff0000ffff0000b9
:101b3400ffff0000ffff0000ffff0000ffff0000a9
:101b4400000500000a0f0000141a00001f24000002
:101b5400292e0000333800003d420000474d0000ac
:101b6400525700005c610000666b00007075000055
:101b74007a7f0000848900008e930000999e000003
:101b8400a3a80000adb20000b7bc0000c1c60000ad
:101b9400ccd10000d6db0000e0e50000eaef000055
:101ba400f4fa0000faf40000efea0000e5e00000b7
:101bb400dbd60000d1cc0000c6c10000bcb70000d9
:101bc400b2ad0000a8a300009e990000938e00000f
:101bd400898400007f7a0000757000006b66000045
:101be400615c0000575200004d470000423d000078
:101bf400383300002e290000241f00001a140000ae
:101c04000f0a0000050000000d0a00004f680000e4
:101c1400617900006f750000204700006f7a0000b2
:101c2400616900006d6100007375000020540000bc
:101c340061690000636800006f2d0000736100009b
:101c44006d610000210d0000000d00000a5300002a
:101c5400656e00006420000027310000272000008a
:101c6400666f00007220000073710000756100004f
:101c7400726500002077000061760000650d0000a9
:101c8400000d00000a530000656e0000642000008f
:101c94002732000027200000666f00007220000039
:101ca400736900006e200000776100007665000013
:101cb4000d0000000d0a0000536500006e64000072
:101cc4002027000033270000206600006f72000008
:101cd4002074000072690000616e0000676c0000ef
:101ce4006520000077610000766500000d000000ab
:101cf4000d0a0000534f00004d45000054480000f9
:101d0400494e0000472000004241000044200000ea
:101d14004841000050500000454e0000454400007a
:101d24000a0d0000000d00000a09000053710000b4
:101d34007561000072650000207700006176000084
:101d44006520000061630000746900007661000092
:101d540074650000642e00002e2e00000d000000ab
:101d64000d0a000009530000696e0000207700008e
:101d74006176000065200000616300007469000062
:101d84007661000074650000642e00002e2e0000b1
:101d94000d0000000d0a00000954000072690000e3
:101da400616e0000676c0000652000007761000030
:101db400766500002061000063740000697600000d
:101dc40061740000656400002e2e00002e0d0000da
:101dd400000d00000a4900006e760000616c0000ee
:101de40069640000204900006e70000075740000f2
:101df400210d0000000d00000a09000053710000cd
:101e040075610000726500002077000061760000b3
:101e1400652000006465000066610000756c0000c8
:0c1e240074650000642100000d00000047
:020000040000fa
:101e3000001000000c080000800000000c180000da
:101e4000e0050000820000003200010000000000f8
:101e5000004300000010430000001f00430000008a
:101e60002f430000003d430000004b0043000000f2
:101e7000574300000062430000006c004300000074
:101e8000734300000079430000007d004300000020
:101e90007f430000007f430000007d0043000000fe
:101ea000794300000073430000006c004300000011
:101eb000624300000057430000004b004300000055
:101ec0003d430000002f430000001f0043000000be
:101ed00010430000000043000000de00420000004c
:101ee000c042000000a04200000084004200000048
:101ef00050420000002042000000e80041000000c5
:101f000098410000004041000000c0004000000077
:101f10000040000000000000000000000000000081
:101f20000040000000c040000000400041000000f0
:101f30009841000000e8410000002000420000003d
:101f400050420000008442000000a0004200000057
:101f5000c042000000de420000000000430000001c
:101f600010430000001f430000002f00430000004a
:101f70003d430000004b43000000570043000000b9
:101f800062430000006c4300000073004300000047
:101f900079430000007d430000007f004300000003
:101fa0007f430000007d43000000790043000000f3
:101fb00073430000006c4300000062004300000017
:101fc00057430000004b430000003d004300000069
:101fd0002f430000001f43000000100043000000da
:101fe0000043000000de42000000c000420000008c
:101ff000a0420000008442000000500042000000a7
:102000002042000000e8410000009800410000006c
:102010004041000000c040000000000040000000ff
:102020000000000000000000000000004000000070
:10203000c040000000404100000098004100000046
:10204000e841000000204200000050004200000073
:102050008442000000a042000000c00042000000d6
:10206000de428000909faf00bdcbd700e2ecf300d2
:10207000f9fdff00fffdf900f3ece200d7cbbd0056
:10208000af9f9000806f600050423400281d130005
:102090000c06020000000200060c13001d2834008c
:1020a000425060006f8090009fafbd00cbd7e20030
:1020b000ecf3f900fdffff00fdf9f300ece2d700bf
:1020c000cbbdaf009f9080006f605000423428006d
:1020d0001d130c0006020000000206000c131d0078
:1020e0002834420050606f00000000000000000033
:1020f00000000000000000000000000000000000e0
:1021000000000000000000000000000000000000cf
:1021100000000000000000000000000000000000bf
:1021200000000000000000000000000000000000af
:10213000000000000000000000000000000000009f
:10214000000000000000000000000000000000008f
:10215000000000000000000000000000000000007f
:10216000000000000000000000000000000000006f
:10217000000000000000000000000000000000005f
:10218000000000000000000000000000000000004f
:10219000000000000000000000000000000000003f
:1021a000000000000000000000000000000000002f
:1021b000000000000000000000000000000000001f
:1021c000000000000000000000000000000000000f
:1021d00000000000000000000000000000000000ff
:1021e00000000000000000000000000000000000ef
:1021f00000000000007f430000007f00430000005b
:102200007f430000007f430000007f004300000088
:102210007f430000007f430000007f004300000078
:102220007f430000007f430000007f004300000068
:102230007f430000007f430000007f004300000058
:102240007f430000007f430000007f004300000048
:102250007f430000007f430000007f004300000038
:102260007f430000007f430000007f004300000028
:102270007f430000007f430000007f004300000018
:102280007f430000007f430000007f004300000008
:102290007f430000007f430000007f0043000000f8
:1022a0007f430000007f430000007f0043000000e8
:1022b0007f430000007f430000007f0043000000d8
:1022c0007f430000007f430000007f0043000000c8
:1022d0007f430000007f430000007f0043000000b8
:1022e0007f430000007f430000007f0043000000a8
:1022f0007f430000007f430000007f004300000098
:1023000000000000000000000000000000000000cd
:1023100000000000000000000000000000000000bd
:1023200000000000000000000000000000000000ad
:10233000000000000000000000000000000000009d
:10234000ffffff00ffffff00ffffff00ffffff0099
:10235000ffffff00ffffff00ffffff00ffffff0089
:10236000ffffff00ffffff00ffffff00ffffff0079
:10237000ffffff00ffffff00ffffff00ffffff0069
:10238000ffff0000000000000000a000400000006f
:1023900020410000007041000000a000410000004a
:1023a000d041000000f84100000010004200000091
:1023b000244200000038420000004c0042000000af
:1023c00060420000007442000000840042000000ef
:1023d0008e420000009a42000000a400420000006b
:1023e000ae42000000b842000000c20042000000ff
:1023f000cc42000000d642000000e0004200000095
:10240000ea42000000f442000000fe00420000002a
:10241000044300000009430000000e0043000000d8
:10242000134300000019430000001e004300000099
:10243000234300000028430000002d00430000005b
:10244000324300000037430000003c00430000001e
:10245000414300000046430000004c0043000000e0
:10246000514300000056430000005b0043000000a1
:10247000604300000065430000006a004300000064
:102480006f4300000074430000007a004300000026
:102490007a4300000074430000006f004300000016
:1024a0006a43000000654300000060004300000034
:1024b0005b43000000564300000051004300000051
:1024c0004c43000000464300000041004300000070
:1024d0003c4300000037430000003200430000008e
:1024e0002d430000002843000000230043000000ab
:1024f0001e430000001943000000130043000000c9
:102500000e430000000943000000040043000000e7
:10251000fe42000000f442000000ea004200000019
:10252000e042000000d642000000cc004200000063
:10253000c242000000b842000000ae0042000000ad
:10254000a4420000009a420000008e0042000000f9
:10255000844200000074420000006000420000005d
:102560004c420000003842000000240042000000fd
:102570001042000000f841000000d00041000000bf
:10258000a041000000704100000020004100000058
:10259000a04000000000000000050a000f141a000f
:1025a0001f2429002e3338003d4247004d5257006a
:1025b0005c6166006b7075007a7f8400898e930081
:1025c000999ea300a8adb200b7bcc100c6ccd10093
:1025d000d6dbe000e5eaef00f4fafa00f4efea00f7
:1025e000e5e0db00d6d1cc00c6c1bc00b7b2ad007f
:1025f000a8a39e0099938e0089847f007a7570004d
:102600006b6661005c5752004d4742003d38330015
:102610002e2924001f1a14000f0a050000000000d4
:10262000a41e00002600000082000000cb1e000057
:1026300000cb1e000900000000020000cd1e0000bb
:1026400000cd1e000e02010000000000000000008e
:10265000000000000602020000000000a41e0000ae
:10266000ca1e00000600000080000000ec1d0000f3
:10267000b800000082000000286e75006c6c290014
:1026800000303100323334003536370038396100dc
:102690006263640065660000010000000000000045
:1026a00000000a00000000000000000000640000bc
:1026b0000000000000000000e8030000000000002f
:1026c00000001000270000000000000000a08600ad
:1026d000010000000000000040420f000000000068
:1026e0000000800096980000000000000000e1005b
:1026f000f50500000000000000ca9a003b00000041
:1027000000000000e40b5400020000000000e8009c
:1027100076481700000000000010a500d4e8000073
:1027200000000000a0724e001809000000004000e8
:102730007a10f3005a0000000080c600a47e8d00cd
:102740000300000000c16f00f286230000000000bb
:102750008a5d78004563010000006400a7b3b600fd
:10276000e00d000000e889000423c7008a00000093
:10277000d01e0000020000008200000001000000e6
:042780000000000055
:020000040000fa
:102784000000fa00000000000419800061026200e9
:10279400e00f5200fcff32000080fa000000060047
:1027a4000800fa0020079800310798000002eb00a7
:1027b40014079800c3e8a800550207009602070012
:1027c4006a020700350207000e0ea800000ea800da
:1027d400060ea9000a0ea9000c0ea9000e2ea800d0
:1027e400002ea800062ea9000a2ea9000c2ea9006e
:1027f400840207000002eb00040f78001f0037007a
:102804001e027800eb0f520007003e001e02780003
:1028140084024200c40021000482420025032000f7
:10282400050a780014003700143f20009e02780047
:10283400848f5200070036001e0278008402420092
:10284400c40021000482420005e22400050a780045
:10285400090037001e027800f422b90025f42f0085
:10286400848242001e02780004034200c400210056
:1028740004024300050a78001e0fe800f43f20001c
:102884009e027800848f5200ddff360060e028004d
:10289400d9f8070070e22800d7f8070030e42800d0
:1028a400d5f80700c0e52800d3f807000041eb0085
:1028b400f1c1b3000000eb00e50007009b00070036
:1028c40000027800140798001e0290000500200002
:1028d4000400be00f0f707000002be000480880078
:1028e40015808800048080001580800002002c0080
:1028f400f34724000400be0087f707000002be006f
:1029040024808800358088000002eb00040f7800e2
:1029140066003700e4802100144278000482fb0042
:10292400e20f520021003200e30f52003c0032005b
:10293400e10f520057003a00a4cd28001e024200c5
:10294400144278000482fb00cfa2de000400be0023
:10295400cef707000003be0024808000358080008d
:102964000401be000600be0020f807000002be00fd
:102974000400be00aaf707000002be00044278006b
:102984000482fb00050020000400be00c2f707001b
:102994000002be001e037800c233dd000681210060
:1029a40006834300048bbe003f003700e4d32800b5
:1029b4001e024200144278000482fb00cfa2de0013
:1029c4000400be00b1f707000003be0024808000ad
:1029d400358080000401be000600be0003f8070035
:1029e4000002be000400be008df707000002be0016
:1029f400044278000482fb00050020000400be00ad
:102a0400a5f707000002be001e037800c233dd00f4
:102a140046a0210006834300048bbe002200370039
:102a240024da28001e024200144278000482fb00cb
:102a3400cfa2de000400be0094f707000003be002e
:102a440024808000358080000401be000600be00a2
:102a5400e6f707000002be000400be0070f707009e
:102a64000002be00044278000482fb00050020003e
:102a74000400be0088f707000002be001e037800b1
:102a8400c233dd0086bf210006834300048bbe00f1
:102a940005003700a4e72800841f780062f80700c7
:102aa4008f87e900000000001e0fe80034062000b4
:102ab4009e027800848f520096ff360084c0800006
:102ac40095c080000400be0055f707000002be0058
:102ad40004027800241188000041eb00f1c1b30026
:102ae400100020005a0007001000070000027800c0
:102af400140798001e029000050020000400be0088
:102b040065f707000002be000400be0044f707009a
:102b14000002be00040278004480880044808000e3
:102b24004a22dd0064c0880060ff37000200fa001a
:102b3400043a80004522de0061426200044f7800be
:102b440040a7a8002023a800000000000cff0700f5
:102b54009e42780061c262000482fb00610262004e
:102b64004522dd00063a8000f5fd2f008502630052
:102b740005027200043a88000418800004007800fa
:102b84000080fa00000006003600f800809fbe00b6
:102b9400829fbe00849fbe00869fbe003200f80064
:102ba4000020200090018800000000000200fa00cc
:102bb4000168a90034118000040f78001e02780017
:102bc400e20f52000a003200e30f52000e003200fe
:102bd400e10f520012003a0014c0b3000400780060
:102be4000ef8b70050e9280003f80700100037007a
:102bf40024c0b300040078000ef8b70020eb2800ce
:102c0400fdf707000a00370034c0b3000400780061
:102c14000ef8b700c0ec2800f7f7070004003700ef
:102c2400b0ee2800f4f70700d0ef2800f2f7070011
:102c34000080fa003200f9004f03be004f02be00cc
:102c44004f01be004f00be003600f90000400600f0
:102c54000400fa00000f78002147980032479800da
:102c64002e429000ff4f520002003600f4c1b30020
:102c74002447980021e3a900040e200004198800c9
:102c84003e429000e04f5200020032002143a8006f
:102c9400010037002143a9002e4290000482fb006a
:102ca4004822dd0084027800040028000502720036
:102cb4002419880004002800141988001e027800d2
:102cc4004419880021e3a8000080fa0000000600ef
:102cd4000800fa002007980061479800724798009e
:102ce4000042eb00144798001400200014079800d9
:102cf4000042eb00044f78000c003700ae02900055
:102d04001e02900004826200e00f520003003200b1
:102d14001e4290000442e800144798001e029000ee
:102d240004024200140798001e4fe8001e42780077
:102d3400ef4f5200f1ff36006e429000ff4f5200f9
:102d440002003600f4c1b3006447980021e3a900ef
:102d5400440e2000041988007e429000e04f520087
:102d6400020032002143a800010037002143a900da
:102d74006e4290000482fb004822dd008402780049
:102d84000400280005027200241988001e429000e5
:102d94000482fb000402e9004222dd008402780080
:102da4000440280005027200141988000002eb0098
:102db400441988002e02900084198800344280004f
:102dc4000440a0000450a0000460a0003442880025
:102dd40001a8a90021a8a80021e3a8000080fa0006
:102de400000006000800fa002007980061479800d8
:102df400724798000042eb0014479800140020002a
:102e0400140798000042eb00044f78000c003700d0
:102e1400ae0290001e02900004826200e00f520095
:102e2400030032001e4290000442e8001447980058
:102e34001e02900004024200140798001e4fe8008e
:102e44001e427800ef4f5200f1ff36006e429000b0
:102e5400ff4f520002003600f4c1b30064479800eb
:102e640021e3a900440e2000041988007e4290004a
:102e7400e04f5200020032002143a8000100370055
:102e84002143a9006e4290000482fb004822dd0029
:102e940084027800040028000502720024198800c6
:102ea4001e4290000482fb000402e9004222dd007d
:102eb4008402780024402800050272001419880056
:102ec4000002eb00441988002e0290008419880047
:102ed400344280000440a0000450a0000460a0001c
:102ee4003442880001a8a90021a8a80021e3a80071
:102ef4000080fa00000006000600fa00004f780087
:102f0400110798002207980021e3a90084042000f7
:102f140004198800ae029000f40f200004826200bd
:102f24002419880024302800141988009e4278004f
:102f34000582fb007f026200441988001e02900093
:102f4400341988000002eb008419880034428000a0
:102f54000440a0000450a0000460a0003442880093
:102f640001a8a90021a8a80021e3a8000080fa0074
:102f7400000006000000fa0021e3a90021a3a90033
:102f84002143a900041980000480a1000490a10039
:102f940004198800041980000450a1000460a100f1
:102fa4000470a100041988002063a9002043a9002b
:102fb4001419800004d0a10004e0a10004f0a100d1
:102fc400141988002343a900141980000480a10067
:102fd4000490a100141988001519800034f82f00fa
:102fe40004826200141988002203a90025e3a800c2
:102ff40025198000f40f2e00848262000420200032
:10300400050272002419880024c0b300040078006b
:1030140024e3b700941980000400a1000410a10067
:103024000420a10094198800341980000490a100a0
:1030340004a0a100341988002703a80034198000d3
:103044000410a1000420a100341988002603a8005c
:1030540029e3a90045198000f40f2e0004826200c0
:103064004419880028e3a9004519800004fe2f00b4
:1030740004826200441988000002eb00741988007d
:103084000002eb008419880021e3a8000002eb0091
:10309400040078000080fa00000006000000fa0036
:1030a40041e2a90041a2a8004382a9004362a90009
:1030b4004342a9004322a9004302a90042e2a90015
:1030c40042c2a90042a2a800141280000420a00059
:1030d4000430a0000440a0001412880014128000e0
:1030e4000400a0000410a0001412880045e2a90006
:1030f40045c2a90045a2a8004422a90041e2a800b3
:103104000002eb00040078000080fa0000000600d2
:103114000000fa000002eb00047088000002eb00db
:10312400847088000082eb00747088000082eb00d9
:10313400f47088000002eb00247088000002eb00a9
:10314400a47088000e0ea9000e2ea9001e0ea90060
:103154001e2ea900108ea800112ea8000002eb005c
:10316400040078000080fa00000006000000fa0065
:1031740015348000f40f2c008482620004102000b7
:1031840005027200143488002536800004f82f00ec
:103194008482620044022000050272002436880002
:1031a40072012000f1752d0000c82c0054f50700b1
:1031b40023c2a900c0f72f002bf507000080fa00f6
:1031c400000006000000fa000400200005f82300b7
:1031d400048088001580880044062000448088000c
:1031e4000002eb00040078000080fa0000000600f2
:1031f4000000fa000002eb00040078000080fa00ee
:10320400000006000000fa000002eb000400780051
:103214000080fa00000006000000fa000080fa00b6
:0432240000000600a0
:020000040000fa
:020000040002f8
:04afe000dfff00008f
:020000040000fa
:020000040002f8
:04afe4003fff00002b
:020000040000fa
:020000040002f8
:04afe8007fff0000e7
:020000040000fa
:020000040002f8
:04afec009bff0000c7
:020000040000fa
:020000040002f8
:04aff00078ff0000e6
:00000001FF
