:020000040000fa
:080000000002040000000000f2
:020000040000fa
:10000800d2020000d2020000d2020000d202000098
:10001800d2020000d2020000d2020000d202000088
:10002800d2020000d2020000d2020000d202000078
:10003800d2020000d2020000d2020000d202000068
:10004800d2020000d2020000d202000076080000ae
:10005800d2020000d2020000d2020000d202000048
:10006800d2020000d2020000d2020000d202000038
:10007800d2020000d2020000d2020000d202000028
:10008800d2020000d2020000d2020000d202000018
:020000040000fa
:10040000af0321000eff24000e0188000000000051
:10041000000020000000e000020032000001200087
:10042000200288000c000700a09620000100200098
:100430000f000700000020000000e0000200320072
:100440000000020000000000500802000000000050
:100450000040da000000fe00003520000000e0004f
:1004600002003200002020009001880000000600f9
:10047000a1028800800078000000eb001a0037001d
:10048000e280400054a0b4009101ba00e280400034
:1004900054a0b4009102ba00e280400054a0b4001d
:1004a0000002eb00472bde00f507b200a601880032
:1004b000602ce10008003a000049eb000201e8006e
:1004c000020039003420ec0002f0a0008301e900b2
:1004d000f9ff3e00040037006128e100010032000e
:1004e0000082eb00040007001101ba000200e000e6
:1004f000e3ff3a000000060004d0a300e20f490029
:100500001c003900810278003549ba000201e80078
:10051000020039003420ec0002f0a0008301e90061
:100520000f0032002549ba000201e800020039003c
:100530003420ec0002f0a0008301e9000800320042
:100540000400e0000600320015c9ba000201e8000c
:10055000020039003420ec0002f0a0008301e90021
:100560008180e80054a0b4000300e000e2ff3a00fc
:10057000000006009102ba00055978008301e900e5
:10058000f7ff3200c82ade00055978008301e90030
:10059000f3ff32000400e000f1ff320011d9ba008d
:1005a000eeff37000040da000000fe000a00fa000b
:1005b000e20f500022003e00c4818000e10f520093
:1005c0000600320087232000462320002423200039
:1005d00005232000e08f530004003a00872220000a
:1005e00046222000242220000522200000002800ae
:1005f0001500600003003a00800b78000700280017
:10060000958a7300054020009482620001003a0040
:1006100014a0a0008202780006003700940378003e
:100620000710b200fdff3200b103fb00070b78009a
:100630008502e900e08f5200f8ff3a000800370019
:10064000340020001007980032079800040f78004b
:10065000210798000e007800e50007003e01900099
:10066000020078000080fa00000006000000fa0096
:1006700074708800f57088005eb297007419880065
:10068000ceb2970085198800931988002219880036
:10069000111988000019880062006000d4ff2f0043
:1006a0000519800005026200000072000019880030
:1006b0000080fa00000006000000fa000168a900ae
:1006c0000188a900e7026000cc2add00f4ff2800c1
:1006d0002642800006026200050272002442880061
:1006e000800278000507b200c42ade0084ff2f00d4
:1006f0003642800006026200050272003442880021
:10070000e8026000c32ade00e1826200cb2add003d
:10071000f47f2f000641800006026200050272008d
:10072000044188000008b2004700de00610060005c
:100730004c00dd00f4ff2e00054180000502620040
:1007400000027200044188000080fa0000000600e8
:100750000000fa0042118800001188001111880081
:100760000080fa00000006000000fa00889fbe002a
:100770000004be00050037000000fb00890078007f
:1007800015000700e10f40000400320038407800f7
:10079000e04f5000f8ff3a000000eb004f04be00ad
:1007a0000080fa0000000600810121000000fa002c
:1007b000881f7800ecff0700810121000004780009
:1007c000a000200004000700080078004f04780013
:1007d0000080fa00000006000000fa00889fbe00ba
:1007e000010478008084eb0038029000e20262008d
:1007f0003b00320004037800980290000620b2000b
:1008000002003a00e08f520035003a000490a00048
:100810008004780034049800f90fb200e08f520091
:1008200002003a00a8029000050c7800ea8f5400fc
:1008300005003a000408b20003003a00880078007e
:10084000d0002000e4ff070018029000d8029000ba
:10085000850f52000b0032000402e80015c0b300ff
:100860001404980018027800094a7800040ce80083
:1008700024032100054a7800ea8f540018003a004a
:10088000050037000940780088007800180007004c
:100890008004780012003700380290000410b20083
:1008a0000f00320018019000a8009000480090004e
:1008b0003eff070018029000840f50000400320031
:1008c000380290000403b300340498008084eb00e5
:1008d0000002eb001404980028029000040c780039
:1008e000090078004f04be000080fa0000000600f6
:1008f0000200fa00889fbe0001047800004f7800d3
:1009000038029000840278000504b2000200320030
:100910000000fb0033003700e202620005003a00ed
:100920000403b30015049800340498000080eb0021
:100930002c003700d8049000e08f540006003a00e5
:10094000120020008e0078004800900017ff07007a
:100950001904980022003700a8029000e08f52008e
:1009600008003a00550321000430a0002504980037
:10097000050c7800340498002500200055049800e8
:100980001504980018019000a800900048009000fd
:1009900006ff0700280290008082eb0015049800f3
:1009a0001e4a7800040ce800a4c0b3009e4f120059
:1009b0000b003a00380290000410b2000800320028
:1009c00018019000a800900048009000f7fe070072
:1009d0000002eb001404980028029000040c780038
:1009e0001e00fb004f04be000080fa00000006005d
:1009f0000000fa0000c0da000080fa0000000600e3
:020000040000fa
:100a000080000000900000009f000000af00000088
:100a1000bd000000cb000000d7000000e200000095
:100a2000ec000000f3000000f9000000fd000000f1
:100a3000ff000000ff000000fd000000f9000000c2
:100a4000f3000000ec000000e2000000d70000000e
:100a5000cb000000bd000000af0000009f000000c0
:100a600090000000800000006f00000060000000a7
:100a70005000000042000000340000002800000088
:100a80001d000000130000000c0000000600000024
:100a90000200000000000000000000000200000052
:100aa000060000000c000000130000001d00000004
:100ab0002800000034000000420000005000000048
:100ac000600000006f000000800000009000000047
:100ad0009f000000af000000bd000000cb00000040
:100ae000d7000000e2000000ec000000f30000006e
:100af000f9000000fd000000ff000000ff00000002
:100b0000fd000000f9000000f3000000ec00000010
:100b1000e2000000d7000000cb000000bd00000094
:100b2000af0000009f000000900000008000000067
:100b30006f00000060000000500000004200000054
:100b400034000000280000001d0000001300000019
:100b50000c00000006000000020000000000000081
:100b60000000000002000000060000000c00000071
:100b7000130000001d0000002800000034000000e9
:100b80004200000050000000600000006f00000004
:100b90000000000000000000000000000000000055
:100ba0000000000000000000000000000000000045
:100bb0000000000000000000000000000000000035
:100bc0000000000000000000000000000000000025
:100bd0000000000000000000000000000000000015
:100be0000000000000000000000000000000000005
:100bf00000000000000000000000000000000000f5
:100c000000000000000000000000000000000000e4
:100c100000000000000000000000000000000000d4
:100c200000000000000000000000000000000000c4
:100c300000000000000000000000000000000000b4
:100c400000000000000000000000000000000000a4
:100c50000000000000000000ff000000ff00000096
:100c6000ff000000ff000000ff000000ff00000088
:100c7000ff000000ff000000ff000000ff00000078
:100c8000ff000000ff000000ff000000ff00000068
:100c9000ff000000ff000000ff000000ff00000058
:100ca000ff000000ff000000ff000000ff00000048
:100cb000ff000000ff000000ff000000ff00000038
:100cc000ff000000ff000000ff000000ff00000028
:100cd000ff000000ff000000ff000000ff00000018
:100ce000ff000000ff000000ff000000ff00000008
:100cf000ff000000ff000000ff000000ff000000f8
:100d0000ff000000ff000000ff000000ff000000e7
:100d1000ff000000ff000000ff000000ff000000d7
:100d200000000000050000000a0000000f000000a5
:100d3000140000001a0000001f0000002400000042
:100d4000290000002e0000003300000038000000e1
:100d50003d00000042000000470000004d00000080
:100d600052000000570000005c000000610000001d
:100d7000660000006b0000007000000075000000bd
:100d80007a0000007f00000084000000890000005d
:100d90008e00000093000000990000009e000000fb
:100da000a3000000a8000000ad000000b200000099
:100db000b7000000bc000000c1000000c600000039
:100dc000cc000000d1000000d6000000db000000d5
:100dd000e0000000e5000000ea000000ef00000075
:100de000f4000000fa000000fa000000f400000027
:100df000ef000000ea000000e5000000e000000055
:100e0000db000000d6000000d1000000cc00000094
:100e1000c6000000c1000000bc000000b7000000d8
:100e2000b2000000ad000000a8000000a300000018
:100e30009e00000099000000930000008e0000005a
:100e400089000000840000007f0000007a0000009c
:100e500075000000700000006b00000066000000dc
:100e6000610000005c00000057000000520000001c
:100e70004d00000047000000420000003d0000005f
:100e800038000000330000002e00000029000000a0
:100e9000240000001f0000001a00000014000000e1
:100ea0000f0000000a000000050000000000000024
:100eb0000d0a00004f680000617900006f750000a6
:100ec000204700006f7a0000616900006d6100003a
:100ed0007375000020540000616900006368000021
:100ee0006f2d0000736100006d610000210d000096
:100ef000000d00000a530000656e00006420000031
:100f00002731000027200000666f000072200000db
:100f100073710000756100007265000020770000a9
:100f200061760000650d0000000d00000a5300000e
:100f3000656e0000642000002732000027200000ba
:100f4000666f000072200000736900006e200000d0
:100f500077610000766500000d0000000d0a0000ba
:100f6000536500006e640000202700003327000056
:100f7000206600006f72000020740000726900009b
:100f8000616e0000676c0000652000007761000062
:100f9000766500000d0000000d0a000009530000f6
:100fa000717500006172000065200000776100002b
:100fb000766500002061000063740000697600001f
:100fc00061740000656400002e2e00002e0d0000ec
:100fd000000d00000a090000536900006e200000a7
:100fe00077610000766500002061000063740000f6
:100ff0006976000061740000656400002e2e000018
:101000002e0d0000000d00000a09000054720000bf
:10101000696100006e6700006c65000020770000c9
:1010200061760000652000006163000074690000c3
:101030007661000074650000642e00002e2e000012
:101040000d0000000d0a0000496e000076610000ee
:101050006c69000064200000496e0000707500009b
:10106000742100000d0000000d0a0000095300006b
:10107000717500006172000065200000776100005a
:101080007665000020640000656600006175000060
:101090006c74000065640000210d00000000000079
:020000040000fa
:1010a0000400fa00000f780011079800c3e8a800b8
:1010b000c400070004010700dd000700a4000700ca
:1010c000620007003b00070080752800b6fd07009e
:1010d00090772800b4fd070050792800b2fd070082
:1010e000e07a2800b0fd0700ffff37003600f80067
:1010f000809fbe00829fbe00849fbe00869fbe0070
:101100003200f8000020200090018800000000005c
:101110000200fa000168a90034118000040f780071
:101120001e027800e20f52000a003200e30f520064
:101130000e003200e10f520012003a0014c0b3005a
:10114000040078000af0b700c07c280096fd070074
:101150001000370024c0b300040078000af0b70084
:10116000907e280090fd07000a00370034c0b300cd
:10117000040078000af0b700308028008afd0700dc
:10118000040037002082280087fd070040832800e4
:1011900085fd07000080fa003200f9004f03be0011
:1011a0004f02be004f01be004f00be003600f900e6
:1011b000004006000800fa002023a8000002eb000f
:1011c000040f78000b0037000002eb0014079800b2
:1011d00004003700000000001e0290000402e80036
:1011e000140798001e029000e10f4200f9ff3a0038
:1011f0001e0fe8001e027800e10f5200f2ff3600d9
:101200002023a90000000000041980006102620090
:10121000e00f5200fcff320015eea8000518800018
:10122000f40f200004826200240798000418800054
:101230004822de00340798003e0290002411880006
:101240002e02900024118800dbff37000000fa0016
:101250000002eb00841f78000002eb00841f78007e
:101260000002eb00841f78000002eb00841f78006e
:101270000002eb00841f78000002eb00841f78005e
:101280000002eb00841f78000002eb00841f78004e
:101290000002eb00841f78008003eb000003eb00ea
:1012a0008002eb000002eb000306260002f027009c
:1012b000c1ff2000b0802d00ecfc0700f287570032
:1012c00021a8a9000002eb00040078000080fa00c9
:0412d0000000060014
:020000040000fa
:1012d400001000000a000000800000000a10000056
:1012e4000200000082000000010000000c10000059
:1012f40026000000820000003310000000331000bc
:101304000900000000020000351000000035100044
:101314000e020100000000000000000000000000b8
:1013240006020200000000000c1000003210000051
:1013340006000000800000003810000002000000d9
:0c1344008200000001000000000000001a
:020000040000fa
:101350000000fa0041e2a90041a2a8004382a900ce
:101360004362a9004342a9004322a9004302a90005
:1013700042e2a90042c2a90042a2a80014128000c1
:101380000420a0000430a0000440a0001412880033
:10139000141280000400a0000410a00014128800a1
:1013a00045e2a90045c2a90045a2a8004422a9001f
:1013b00041e2a8000002eb00040078000080fa007f
:1013c000000006000000fa000002eb000470880034
:1013d0000002eb00847088000082eb0074708800cb
:1013e0000082eb00f47088000002eb00247088009b
:1013f0000002eb00a4708800000ea800002ea800d8
:10140000004ea800006ea8000e0ea9000e2ea90026
:101410001e0ea9001e2ea900108ea800112ea800d5
:101420000002eb00040078000080fa0000000600d3
:101430000000fa0015348000f40f2c008482620052
:101440000410200005027200143488002536800044
:1014500004f82f008482620044022000050272001a
:101460002436880072012000f1752d0000c82c0080
:10147000b7fc070023c2a900c0f72f008efc0700ad
:101480000080fa00000006000000fa0004002000be
:1014900005f8230004808800158088004406200099
:1014a000248088000002eb00040078000080fa002d
:1014b000000006000000fa000002eb0004007800c3
:1014c0000080fa00000006000000fa000080fa0028
:0414d0000000060012
:020000040000fa
:020000040002f8
:04afe000dfff00008f
:020000040000fa
:020000040002f8
:04afe4003fff00002b
:020000040000fa
:020000040002f8
:04afe8007fff0000e7
:020000040000fa
:020000040002f8
:04afec009bff0000c7
:020000040000fa
:020000040002f8
:04aff00078ff0000e6
:00000001FF
