:020000040000fa
:080000000002040000000000f2
:020000040000fa
:10000800d2020000d2020000d2020000d202000098
:10001800d2020000d2020000d2020000d202000088
:10002800d2020000d2020000d2020000d202000078
:10003800d2020000d2020000d2020000d202000068
:10004800d2020000d2020000d2020000260e0000f8
:10005800d2020000d2020000d2020000d202000048
:10006800d2020000d2020000d2020000d202000038
:10007800d2020000d2020000d2020000d202000028
:10008800d2020000d2020000d2020000d202000018
:020000040000fa
:100400000f0f21000eff24000e01880000000000e5
:10041000000020000000e000020032000001200087
:10042000200288000c000700c0ce20000100200040
:100430000f000700000020000000e0000200320072
:1004400000000200000000000e0e0200000000008c
:100450000040da000000fe00c02520000000e0009f
:1004600002003200002020009001880000000600f9
:10047000a1028800800078000000eb001a0037001d
:10048000e280400054a0b4009101ba00e280400034
:1004900054a0b4009102ba00e280400054a0b4001d
:1004a0000002eb00472bde00f507b200a601880032
:1004b000602ce10008003a000049eb000201e8006e
:1004c000020039003420ec0002f0a0008301e900b2
:1004d000f9ff3e00040037006128e100010032000e
:1004e0000082eb00040007001101ba000200e000e6
:1004f000e3ff3a000000060004d0a300e20f490029
:100500001c003900810278003549ba000201e80078
:10051000020039003420ec0002f0a0008301e90061
:100520000f0032002549ba000201e800020039003c
:100530003420ec0002f0a0008301e9000800320042
:100540000400e0000600320015c9ba000201e8000c
:10055000020039003420ec0002f0a0008301e90021
:100560008180e80054a0b4000300e000e2ff3a00fc
:10057000000006009102ba00055978008301e900e5
:10058000f7ff3200c82ade00055978008301e90030
:10059000f3ff32000400e000f1ff320011d9ba008d
:1005a000eeff37000040da000000fe000a00fa000b
:1005b000e20f500022003e0074878000e10f5200dd
:1005c0000600320087232000462320002423200039
:1005d00005232000e08f530004003a00872220000a
:1005e00046222000242220000522200000002800ae
:1005f0001500600003003a00800b78000700280017
:10060000958a7300054020009482620001003a0040
:1006100014a0a0008202780006003700940378003e
:100620000710b200fdff3200b103fb00070b78009a
:100630008502e900e08f5200f8ff3a000800370019
:10064000340020001007980032079800040f78004b
:10065000210798000e007800970307003e019000e4
:10066000020078000080fa00000006000000fa0096
:100670000428a900e7026000c42add00f4f82f0076
:1006800086428000060262000502720084428800f1
:10069000680060004300de00610060000000400070
:1006a000d4ff2f0025418000050262000000720087
:1006b000204188000080fa00000006000000fa00d7
:1006c0001013880021138800021388000080fa00ac
:1006d000000006000000fa000168a9000188a900d6
:1006e000e7026000cc2add00f4ff280026428000eb
:1006f000060262000502720024428800800278002f
:100700000507b200c42ade0084ff2f0036428000b5
:10071000060262000502720034428800e8026000ae
:10072000c32ade00e1826200cb2add00f47f2f00c5
:100730000641800006026200050272000441880042
:100740000008b2004700de00610060004c00dd00e0
:10075000f4ff2e00054180000502620000027200d5
:10076000044188000080fa00000006000000fa0042
:100770004211880000118800111188000080fa00e1
:1007800000000600e10c21000000fa00090007004b
:100790000080fa0000000600e00c21000000fa00d2
:1007a00068015700ceb89700480007000080fa00a3
:1007b000000006000000fa00889fbe0001047800d7
:1007c0008084eb0038029000e20262003b003200bd
:1007d00004037800980290000620b20002003a005c
:1007e000e08f520035003a000490a00080047800a9
:1007f00034049800f90fb200e08f520002003a0072
:10080000a8029000050c7800ea8f540005003a0019
:100810000408b20003003a0088007800d0002000ed
:10082000e4ff070018029000d8029000850f5200e4
:100830000b0032000402e80015c0b3001404980055
:1008400018027800094a7800040ce800840e2100a0
:10085000054a7800ea8f540018003a000500370076
:100860000940780088007800d302070080047800ef
:1008700012003700380290000410b2000f0032005e
:1008800018019000a80090004800900047ff070062
:1008900018029000840f50000400320038029000cb
:1008a0000403b300340498008084eb000002eb00e2
:1008b0001404980028029000040c780009007800c5
:1008c0004f04be000080fa00000006003c00fa0061
:1008d000889fbe00710f98008a9fbe001217980073
:1008e0008c9fbe00000678008006eb00a702370050
:1008f000fe08900054c2b3008100e800710f980018
:10090000844f500006003a00810278000043eb005b
:1009100002c3b30001c2b300b0c2b3000e0037007f
:100920003c0290000404b200040032001c02780073
:10093000004a7800040ee800050037000000fb00c4
:100940008c0078009bff0700e10f40008f0232000f
:100950008d06e8008d02370085037800d3c2b3000e
:1009600035427800834f52000900320005003c00f8
:10097000814f520008003200804f52000c003a00b4
:1009800007003700824f520009003a000600370086
:100990000634a000f0ff37000604a000eeff370089
:1009a0000614a000ecff37000624a000eaff370081
:1009b000e2026300010032000604a100e8026300c5
:1009c000010032000624a1008402fb000503b100ef
:1009d000e98f52000c003e00070278008002eb0015
:1009e000ea28b900b402fb000503b10084037800d3
:1009f000808242001400fb000003b100e90f5000a8
:100a0000f7ff3600080037008002eb00a0c2b300f9
:100a1000804f520004003a001e1290008703e80045
:100a2000c4027800141798000002eb00e0c2b30083
:100a3000974f100009003a0064405000d74f100053
:100a40000200320007007800090037001e149000f1
:100a50008703e800480278001817980032c6b300f0
:100a6000c1c6b30008003700ea22b9000482400082
:100a700080037800b000fb000103b100e98f500053
:100a8000f9ff3600f5ff37008701780039c7b3005a
:100a90003340780083037800894f50001a003200f9
:100aa00008003c00824f500088003200814f500007
:100ab0000c003200730f9800e04f500038023200f3
:100ac000a5003700730f980057c7b300874f500039
:100ad000a6003200e3c34300874f50009e003a0057
:100ae00006003700f001630000c1b30001003200ce
:100af0000040eb0000437300e3ff3700004f780035
:100b00000674a0009c0037009e159000730f98009b
:100b10003ac7b3000a4f7800cb0378001b17980040
:100b200067179800e08f530002003a00a1002100ef
:100b3000611798006e1090008003eb0001003700f1
:100b40008703e800870040000041eb00914f11004f
:100b5000fbff3a0077179800e00f520004003200c4
:100b6000fe119000830f52000100310074179800ad
:100b70007e1290000004eb00848f520001003600ca
:100b800004845200e80463000ac2b3000f0032007c
:100b90002b0037003c0290000404b2000400320035
:100ba0001c0278000a4a7800040ee80005003700ad
:100bb0008c00780000022000fefe0700e10f4000dc
:100bc000010032008d06e8000804e900e00f54003f
:100bd000f0ff3a000084eb00190037003c0390005e
:100be0000604b20009003200080378001c007800f7
:100bf000b64378000748780006047800000ee80045
:100c0000e0cf53000c003a001200370008037800d0
:100c10008c0078003600fb00541f9800451f980098
:100c200006047800e3fe07005e1a9000ce1a9000da
:100c3000e10f4000070032008d06e8000500370094
:100c40000802be006e149000fe1490000e1d90006d
:100c50009e1d9000090378008604e900e00f530010
:100c6000deff3a0068179800791798000a1f98006d
:100c70001b1f98000404be00e08f5400c301320023
:100c800009c2b3000e0037003c0290000404b20019
:100c9000040032001c027800094a7800040ee800c3
:100ca000050037008c00780000022000c1fe07001c
:100cb000e10f4000010032008d06e8000804e90061
:100cc000e00f5400f0ff3a00b00137009e10900092
:100cd000730f9800c103780007047800cfc4de00ca
:100ce000090578008a0578001117980028179800e0
:100cf000391798004a1798005b1798004844de009f
:100d00004848dd000804700070006300084f780058
:100d10000a003200e04f540008003200e14f440066
:100d200006003200ce609000220020001847980094
:100d30002147980072179800040037001700200020
:100d400077179800ce619000134798000e04e800d2
:100d50006817980080ff37001a002000004f7800c5
:100d60006e1798007a1798007bff3700004f7800c5
:100d700007ccb300074373000683fb00f005630054
:100d8000261798002b079800120032001e119000c1
:100d90008001eb004200be000003eb00200f980032
:100da000310f9800430f9800560f980012179800c3
:100db0002e0c9000be0c90004e0d9000de0d9000a9
:100dc00068179800791798000a1f98001b1f980051
:100dd0000b0037009e14900049037800060078004d
:100de00001002000020020000300200019179800d5
:100df0006017980071179800021f9800131f980041
:100e0000e00f52000b003a00140020006e14900016
:100e1000fe1490000e1d90009e1d9000e00f5400e7
:100e2000e08f5c00e00f5d00e08f5d0001003200ac
:100e30000002eb00ae14900006082000090cb2007e
:100e4000690f9800868f540014003200060c2000b1
:100e5000868f540029003a00a702210016c0b30073
:100e60003700be003701be006e149000fe149000e3
:100e70000e1d90009e1d90000040e10001c8e100a1
:100e800002d0e10003d8e1001b0039000643e8006e
:100e9000f44f5300f2ff3a001700370016c0b300ba
:100ea00000012000010020006011b8006e149000c5
:100eb000fe1490000e1d90009e1d90000040e10069
:100ec00001c8e10002d0e10003d8e1000a003900c6
:100ed000490020000000d0008180d2000281d200b1
:100ee0008381d2008904e900faff3a000643e80052
:100ef000f04f5300edff3a00064f78001e03fb0051
:100f0000840f530002003d00044f780003003700b7
:100f1000860f520001003d0006027800e08f52006b
:100f2000040032002e1590006303650001003200ba
:100f30008502e9008005eb001e03fb000b179800fb
:100f4000868f520002003400068352000617980074
:100f50002e109000e40260003f0032006203600047
:100f6000e1026000e00f5300110032003c039000ea
:100f70000604b200080032001c037800b7c2b300b8
:100f8000e08f52000100320087c3e800074b780071
:100f9000060ee80017003700b0022000e08f520074
:100fa000010032000080e8008c0078000c0037005f
:100fb000e08f520010003200bc0290000504b20025
:100fc000050032009c02780006c2b300864a780011
:100fd000050ee800070037008c00780000022000b2
:100fe000541f9800f3fd07005e1a9000e10f4000c7
:100ff000010032008d06e8008e109000e08f500056
:101000005700320008c3b30081047800bc0290008e
:101010000504b200040032009c027800884a78007f
:10102000050ee80007003700541f98008c00780078
:1010300000032000dffd07005e1a9000e10f400072
:10104000010032008d06e8008904e900efff3a0054
:1010500009179800420037000e119000e00f510070
:1010600017003200ae119000e882610014003a00cf
:1010700008c2b30082047800bc0290000504b200ec
:10108000040032009c027800884a7800050ee800cf
:1010900007003700541f98008c00780000022000e1
:1010a000c4fd07005e1a9000e10f4000010032000d
:1010b0008d06e8008904e900efff3a00091798005f
:1010c000ae12900062836200e1826200e00f530082
:1010d000110032003c0390000604b2000800320008
:1010e0001c037800b7c2b300e08f52000100320049
:1010f00087c3e800074b7800060ee80017003700aa
:10110000b0022000e08f5200010032000080e800b1
:101110008c0078000c003700e08f52001000320085
:10112000bc0290000504b200050032009c02780069
:1011300006c2b300864a7800050ee80007003700b3
:101140008c00780000022000541f980099fd0700d1
:101150005e1a9000e10f4000010032008d06e800a9
:101160008402e90027022100422bdd005407980089
:10117000c32add004d079800878242003607980099
:10118000850678006e129000fe1290000e1b9000f3
:101190009e1b90005e0037005e049000ee0c9000f5
:1011a0000804e9000a082000580798008a8f5400b4
:1011b0002b003200000c2000808f540036003a00d3
:1011c000ae059000e08f55001b0032000400be0009
:1011d00064179800751798003d04be002d05be00e9
:1011e0000801be00b80007000801be00004f7800eb
:1011f0000000fb00cf80de00c30007000002eb0010
:101200006e119000fe119000140f98000001510023
:101210008181590062079800730798008001eb00f4
:10122000030f98006e029000fe0290000e0b9000db
:101230009e0b9000070037001d0178001100090087
:101240000282d800a2002000110009000280d8000c
:10125000014f780008c3b3001e4f44000e00370052
:101260000400be000601be00be0490001a01210069
:101270008904e900050033008301d1000281d30015
:101280008180d3000080d300f9ff37006f00600039
:101290000a004000104f78003c0090000004b200ab
:1012a000070032009c0078001e40780080487800db
:1012b000010ee800e04f50000e003a001000370029
:1012c000541f9800451f9800261f9800371f98004c
:1012d0001e00fb008c00780036fd07005e1a9000af
:1012e000ce1a90002e1b9000be1b9000e10f400014
:1012f00003003200ce0590008b05e8004b079800f4
:101300003e0090006400500030079800e8865600c8
:10131000de009000e08f50009fff3a0064179800b5
:1013200075179800061f9800171f9800ae149000bc
:10133000ce06900068826400140032000e15900002
:10134000e00f55001100340008c2b3008a04780091
:101350003c0290000404b200040032001c02780039
:10136000084a7800040ee800050037008c00780079
:10137000000220000ffd0700e10f400001003200d5
:101380008d06e8008904e900f1ff3a00fe0d9000a7
:101390001b407800004f7800e04f500054fd3a00a9
:1013a0000d0078004f06be004f05be004f04be0082
:1013b0000080fa00000006000200fa00889fbe00cc
:1013c00001047800004f7800380290008402780011
:1013d0000504b200020032000000fb0033003700b9
:1013e000e202620005003a000403b300150498000d
:1013f000340498000080eb002c003700d8049000e3
:10140000e08f540006003a00120020008e007800a1
:101410004800900065fc070019049800220037007e
:10142000a8029000e08f520008003a00b50e21009b
:101430000430a00025049800050c780034049800be
:10144000250020005504980015049800180190000c
:10145000a80090004800900054fc0700280290006b
:101460008082eb00150498001e4a7800040ce80006
:10147000a4c0b3009e4f12000b003a003802900047
:101480000410b2000800320018019000a80090007b
:101490004800900045fc07000002eb00140498008f
:1014a00028029000040c78001e00fb004f04be00d0
:1014b0000080fa00000006000000fa0000c0da0018
:1014c0000080fa00000006006022b800060220003a
:1014d0000000d0008180d2000482d2008582d20038
:1014e0000000a0000202520083825a000300310073
:1014f0000202420083824a000000a1000603e900c4
:10150000f3ff3a0000000600020ab900001bb90010
:101510000200b80081004200810043000000060084
:020000040000fa
:1015200080000000900000009f000000af0000005d
:10153000bd000000cb000000d7000000e20000006a
:10154000ec000000f3000000f9000000fd000000c6
:10155000ff000000ff000000fd000000f900000097
:10156000f3000000ec000000e2000000d7000000e3
:10157000cb000000bd000000af0000009f00000095
:1015800090000000800000006f000000600000007c
:10159000500000004200000034000000280000005d
:1015a0001d000000130000000c00000006000000f9
:1015b0000200000000000000000000000200000027
:1015c000060000000c000000130000001d000000d9
:1015d000280000003400000042000000500000001d
:1015e000600000006f00000080000000900000001c
:1015f0009f000000af000000bd000000cb00000015
:10160000d7000000e2000000ec000000f300000042
:10161000f9000000fd000000ff000000ff000000d6
:10162000fd000000f9000000f3000000ec000000e5
:10163000e2000000d7000000cb000000bd00000069
:10164000af0000009f00000090000000800000003c
:101650006f00000060000000500000004200000029
:1016600034000000280000001d00000013000000ee
:101670000c00000006000000020000000000000056
:101680000000000002000000060000000c00000046
:10169000130000001d0000002800000034000000be
:1016a0004200000050000000600000006f000000d9
:1016b000000000000000000000000000000000002a
:1016c000000000000000000000000000000000001a
:1016d000000000000000000000000000000000000a
:1016e00000000000000000000000000000000000fa
:1016f00000000000000000000000000000000000ea
:1017000000000000000000000000000000000000d9
:1017100000000000000000000000000000000000c9
:1017200000000000000000000000000000000000b9
:1017300000000000000000000000000000000000a9
:101740000000000000000000000000000000000099
:101750000000000000000000000000000000000089
:101760000000000000000000000000000000000079
:101770000000000000000000ff000000ff0000006b
:10178000ff000000ff000000ff000000ff0000005d
:10179000ff000000ff000000ff000000ff0000004d
:1017a000ff000000ff000000ff000000ff0000003d
:1017b000ff000000ff000000ff000000ff0000002d
:1017c000ff000000ff000000ff000000ff0000001d
:1017d000ff000000ff000000ff000000ff0000000d
:1017e000ff000000ff000000ff000000ff000000fd
:1017f000ff000000ff000000ff000000ff000000ed
:10180000ff000000ff000000ff000000ff000000dc
:10181000ff000000ff000000ff000000ff000000cc
:10182000ff000000ff000000ff000000ff000000bc
:10183000ff000000ff000000ff000000ff000000ac
:1018400000000000050000000a0000000f0000007a
:10185000140000001a0000001f0000002400000017
:10186000290000002e0000003300000038000000b6
:101870003d00000042000000470000004d00000055
:1018800052000000570000005c00000061000000f2
:10189000660000006b000000700000007500000092
:1018a0007a0000007f000000840000008900000032
:1018b0008e00000093000000990000009e000000d0
:1018c000a3000000a8000000ad000000b20000006e
:1018d000b7000000bc000000c1000000c60000000e
:1018e000cc000000d1000000d6000000db000000aa
:1018f000e0000000e5000000ea000000ef0000004a
:10190000f4000000fa000000fa000000f4000000fb
:10191000ef000000ea000000e5000000e000000029
:10192000db000000d6000000d1000000cc00000069
:10193000c6000000c1000000bc000000b7000000ad
:10194000b2000000ad000000a8000000a3000000ed
:101950009e00000099000000930000008e0000002f
:1019600089000000840000007f0000007a00000071
:1019700075000000700000006b00000066000000b1
:10198000610000005c0000005700000052000000f1
:101990004d00000047000000420000003d00000034
:1019a00038000000330000002e0000002900000075
:1019b000240000001f0000001a00000014000000b6
:1019c0000f0000000a0000000500000000000000f9
:0819d000474f00002100000058
:020000040000fa
:1019d800001000000800000080000000081000004f
:1019e800020000008200000001000000c210000098
:1019f8002600000082000000e910000000e9100045
:101a08000900000000020000eb10000000eb1000cd
:101a18000e020100000000000000000000000000ad
:101a28000602020000000000c2100000e8100000da
:101a380006000000800000000a100000b800000046
:101a480082000000286e75006c6c2900003031009f
:101a58003233340035363700383961006263640048
:101a680065660000010000000000000000000a0098
:101a780000000000000000000064000000000000fa
:101a880000000000e8030000000000000000100053
:101a9800270000000000000000a0860001000000f0
:101aa8000000000040420f0000000000000080001d
:101ab80096980000000000000000e100f505000015
:101ac8000000000000ca9a003b000000000000006f
:101ad800e40b5400020000000000e80076481700fc
:101ae800000000000010a500d4e80000000000007d
:101af800a0724e0018090000000040007a10f300a0
:101b08005a0000000080c600a47e8d00030000007b
:101b180000c16f00f2862300000000008a5d780093
:101b28004563010000006400a7b3b600e00d0000a3
:101b380000e889000423c7008a000000ee100000b6
:101b48000200000082000000010000000000000008
:020000040000fa
:101b58000000fa0021e3a80021a3a9002143a9005d
:101b6800041980000480a1000490a10004198800d1
:101b7800041980000450a0000460a0000470a000b4
:101b880004198800041980000450a1000460a10011
:101b98000470a100041988002063a8002043a8004d
:101ba8001419800004d0a10004e0a10004f0a100f1
:101bb800141988002343a900141980000480a10087
:101bc8000490a100141988002223a8002203a90068
:101bd80025e3a80025198000f40f2e000482620076
:101be800241988000042eb000400780024e3b700c1
:101bf800941980000400a1000410a1000420a10091
:101c0800941988000002eb00040078000080fa00b4
:101c1800000006000400fa00000f78001107980081
:101c28004400070067000700150007002b000700a5
:101c3800c7ff07005800070010022000cffa07006e
:101c4800ffff3700801f7800841f78003200f800fb
:101c58000020200090018800000000000000fa0029
:101c6800a4052000241188000168a9000080fa005a
:101c78003200f9004f0278004f007800004006005b
:101c88000000fa0015348000f40f2c0084826200f2
:101c980004102000050272001434880025368000e4
:101ca80004f82f00048262004401b300243688003f
:101cb80072012000f1752d0000c82c00a9fa070058
:101cc80023c2a900c0f72f0080fa07000002eb002a
:101cd800040078000080fa00000006000000fa0006
:101ce8004534800004fc2f00048262009400b30095
:101cf8004434880045348000f40f2c00848262004c
:101d0800048020000502720044348800f2ff2d0090
:101d1800c1432700f0ff2e0066fa070030ff2f00ae
:101d280050fa07000002eb00040078000080fa0077
:101d3800000006000000fa000002eb0004708800b2
:101d48000002eb00847088000082eb007470880049
:101d58000082eb00f4708800008ea8000002eb00ff
:101d6800040078000080fa00000006000000fa0075
:101d78000400200005f823000480880015808800ee
:101d880044062000248088000002eb00040078004c
:101d98000080fa00000006000000fa0084ce280047
:101da800841f78007afa07008f87e900ffff370061
:101db8000000fa000002eb00040078000080fa003e
:101dc800000006000000fa000080fa00000006008b
:020000040000fa
:020000040002f8
:04afe000dfff00008f
:020000040000fa
:020000040002f8
:04afe4003fff00002b
:020000040000fa
:020000040002f8
:04afe8007fff0000e7
:020000040000fa
:020000040002f8
:04afec009fff0000c3
:020000040000fa
:020000040002f8
:04aff00078ff0000e6
:00000001FF
